{
  "_format": "hh-sol-artifact-1",
  "contractName": "Staking",
  "sourceName": "contracts/Staking.sol",
  "abi": [
    {
      "inputs": [
        {
          "internalType": "address",
          "name": "_tokenA",
          "type": "address"
        },
        {
          "internalType": "address",
          "name": "_tokenB",
          "type": "address"
        }
      ],
      "stateMutability": "nonpayable",
      "type": "constructor"
    },
    {
      "anonymous": false,
      "inputs": [
        {
          "indexed": true,
          "internalType": "address",
          "name": "user",
          "type": "address"
        },
        {
          "indexed": false,
          "internalType": "uint256",
          "name": "amount",
          "type": "uint256"
        }
      ],
      "name": "Deposited",
      "type": "event"
    },
    {
      "anonymous": false,
      "inputs": [
        {
          "indexed": true,
          "internalType": "address",
          "name": "user",
          "type": "address"
        },
        {
          "indexed": false,
          "internalType": "uint256",
          "name": "tokenId",
          "type": "uint256"
        }
      ],
      "name": "NFTDeposited",
      "type": "event"
    },
    {
      "anonymous": false,
      "inputs": [
        {
          "indexed": true,
          "internalType": "address",
          "name": "user",
          "type": "address"
        }
      ],
      "name": "NFTMinted",
      "type": "event"
    },
    {
      "anonymous": false,
      "inputs": [
        {
          "indexed": true,
          "internalType": "address",
          "name": "user",
          "type": "address"
        },
        {
          "indexed": false,
          "internalType": "uint256",
          "name": "tokenId",
          "type": "uint256"
        }
      ],
      "name": "NFTWithdrawn",
      "type": "event"
    },
    {
      "anonymous": false,
      "inputs": [
        {
          "indexed": true,
          "internalType": "address",
          "name": "user",
          "type": "address"
        },
        {
          "indexed": false,
          "internalType": "uint256",
          "name": "reward",
          "type": "uint256"
        }
      ],
      "name": "RewardClaimed",
      "type": "event"
    },
    {
      "anonymous": false,
      "inputs": [
        {
          "indexed": true,
          "internalType": "address",
          "name": "user",
          "type": "address"
        },
        {
          "indexed": false,
          "internalType": "uint256",
          "name": "amount",
          "type": "uint256"
        }
      ],
      "name": "Withdrawn",
      "type": "event"
    },
    {
      "inputs": [],
      "name": "BASE_APR",
      "outputs": [
        {
          "internalType": "uint256",
          "name": "",
          "type": "uint256"
        }
      ],
      "stateMutability": "view",
      "type": "function"
    },
    {
      "inputs": [],
      "name": "LOCK_TIME",
      "outputs": [
        {
          "internalType": "uint256",
          "name": "",
          "type": "uint256"
        }
      ],
      "stateMutability": "view",
      "type": "function"
    },
    {
      "inputs": [],
      "name": "MINT_THRESHOLD",
      "outputs": [
        {
          "internalType": "uint256",
          "name": "",
          "type": "uint256"
        }
      ],
      "stateMutability": "view",
      "type": "function"
    },
    {
      "inputs": [
        {
          "internalType": "address",
          "name": "user",
          "type": "address"
        }
      ],
      "name": "calculateReward",
      "outputs": [
        {
          "internalType": "uint256",
          "name": "",
          "type": "uint256"
        }
      ],
      "stateMutability": "view",
      "type": "function"
    },
    {
      "inputs": [],
      "name": "claimReward",
      "outputs": [],
      "stateMutability": "nonpayable",
      "type": "function"
    },
    {
      "inputs": [
        {
          "internalType": "uint256",
          "name": "_amount",
          "type": "uint256"
        }
      ],
      "name": "deposit",
      "outputs": [],
      "stateMutability": "nonpayable",
      "type": "function"
    },
    {
      "inputs": [
        {
          "internalType": "uint256",
          "name": "tokenId",
          "type": "uint256"
        }
      ],
      "name": "depositNFT",
      "outputs": [],
      "stateMutability": "nonpayable",
      "type": "function"
    },
    {
      "inputs": [
        {
          "internalType": "address",
          "name": "",
          "type": "address"
        },
        {
          "internalType": "uint256",
          "name": "",
          "type": "uint256"
        }
      ],
      "name": "depositedNFTs",
      "outputs": [
        {
          "internalType": "uint256",
          "name": "",
          "type": "uint256"
        }
      ],
      "stateMutability": "view",
      "type": "function"
    },
    {
      "inputs": [
        {
          "internalType": "address",
          "name": "",
          "type": "address"
        }
      ],
      "name": "deposits",
      "outputs": [
        {
          "internalType": "address",
          "name": "user",
          "type": "address"
        },
        {
          "internalType": "uint256",
          "name": "counter",
          "type": "uint256"
        },
        {
          "internalType": "uint256",
          "name": "amount",
          "type": "uint256"
        },
        {
          "internalType": "uint256",
          "name": "reward",
          "type": "uint256"
        },
        {
          "internalType": "uint256",
          "name": "timestamp",
          "type": "uint256"
        }
      ],
      "stateMutability": "view",
      "type": "function"
    },
    {
      "inputs": [
        {
          "internalType": "address",
          "name": "user",
          "type": "address"
        }
      ],
      "name": "getDepositInfo",
      "outputs": [
        {
          "internalType": "uint256",
          "name": "amount",
          "type": "uint256"
        },
        {
          "internalType": "uint256",
          "name": "timestamp",
          "type": "uint256"
        }
      ],
      "stateMutability": "view",
      "type": "function"
    },
    {
      "inputs": [
        {
          "internalType": "address",
          "name": "user",
          "type": "address"
        }
      ],
      "name": "getDepositedNFTs",
      "outputs": [
        {
          "internalType": "uint256[]",
          "name": "",
          "type": "uint256[]"
        }
      ],
      "stateMutability": "view",
      "type": "function"
    },
    {
      "inputs": [
        {
          "internalType": "address",
          "name": "",
          "type": "address"
        }
      ],
      "name": "rewardClaimed",
      "outputs": [
        {
          "internalType": "uint256",
          "name": "",
          "type": "uint256"
        }
      ],
      "stateMutability": "view",
      "type": "function"
    },
    {
      "inputs": [],
      "name": "tokenA",
      "outputs": [
        {
          "internalType": "contract TokenA",
          "name": "",
          "type": "address"
        }
      ],
      "stateMutability": "view",
      "type": "function"
    },
    {
      "inputs": [],
      "name": "tokenB",
      "outputs": [
        {
          "internalType": "contract TokenB",
          "name": "",
          "type": "address"
        }
      ],
      "stateMutability": "view",
      "type": "function"
    },
    {
      "inputs": [
        {
          "internalType": "address",
          "name": "",
          "type": "address"
        }
      ],
      "name": "userAPR",
      "outputs": [
        {
          "internalType": "uint256",
          "name": "",
          "type": "uint256"
        }
      ],
      "stateMutability": "view",
      "type": "function"
    },
    {
      "inputs": [
        {
          "internalType": "uint256",
          "name": "_amount",
          "type": "uint256"
        }
      ],
      "name": "withdraw",
      "outputs": [],
      "stateMutability": "nonpayable",
      "type": "function"
    },
    {
      "inputs": [
        {
          "internalType": "uint256",
          "name": "tokenId",
          "type": "uint256"
        }
      ],
      "name": "withdrawNFT",
      "outputs": [],
      "stateMutability": "nonpayable",
      "type": "function"
    }
  ],
  "bytecode": "0x60806040523480156200001157600080fd5b50604051620023173803806200231783398181016040528101906200003791906200012a565b816000806101000a81548173ffffffffffffffffffffffffffffffffffffffff021916908373ffffffffffffffffffffffffffffffffffffffff16021790555080600160006101000a81548173ffffffffffffffffffffffffffffffffffffffff021916908373ffffffffffffffffffffffffffffffffffffffff160217905550505062000171565b600080fd5b600073ffffffffffffffffffffffffffffffffffffffff82169050919050565b6000620000f282620000c5565b9050919050565b6200010481620000e5565b81146200011057600080fd5b50565b6000815190506200012481620000f9565b92915050565b60008060408385031215620001445762000143620000c0565b5b6000620001548582860162000113565b9250506020620001678582860162000113565b9150509250929050565b61219680620001816000396000f3fe608060405234801561001057600080fd5b506004361061010b5760003560e01c80635f64b55b116100a2578063d82e396211610071578063d82e3962146102a7578063e4fd18c9146102d7578063e91a7ca6146102f5578063f6e3912414610311578063fc7e286d146103415761010b565b80635f64b55b14610233578063b36b26c514610251578063b6b55f2514610281578063b88a802f1461029d5761010b565b80632e1a7d4d116100de5780632e1a7d4d14610198578063413d9c3a146101b45780635287ce12146101d257806359d20574146102035761010b565b8063023245d7146101105780630fc63d101461012c578063134551281461014a57806329e1970414610168575b600080fd5b61012a6004803603810190610125919061177b565b610375565b005b61013461054a565b6040516101419190611827565b60405180910390f35b61015261056e565b60405161015f9190611851565b60405180910390f35b610182600480360381019061017d91906118aa565b610574565b60405161018f9190611851565b60405180910390f35b6101b260048036038101906101ad919061177b565b61058c565b005b6101bc6108fe565b6040516101c99190611851565b60405180910390f35b6101ec60048036038101906101e791906118aa565b610904565b6040516101fa9291906118d7565b60405180910390f35b61021d600480360381019061021891906118aa565b6109e7565b60405161022a9190611851565b60405180910390f35b61023b6109ff565b6040516102489190611921565b60405180910390f35b61026b600480360381019061026691906118aa565b610a25565b60405161027891906119fa565b60405180910390f35b61029b6004803603810190610296919061177b565b610abc565b005b6102a5610ea1565b005b6102c160048036038101906102bc91906118aa565b61112c565b6040516102ce9190611851565b60405180910390f35b6102df611320565b6040516102ec9190611851565b60405180910390f35b61030f600480360381019061030a919061177b565b611325565b005b61032b60048036038101906103269190611a1c565b6114c4565b6040516103389190611851565b60405180910390f35b61035b600480360381019061035691906118aa565b6114f5565b60405161036c959493929190611a6b565b60405180910390f35b61037f338261154b565b6103be576040517f08c379a00000000000000000000000000000000000000000000000000000000081526004016103b590611b1b565b60405180910390fd5b600160009054906101000a900473ffffffffffffffffffffffffffffffffffffffff1673ffffffffffffffffffffffffffffffffffffffff166323b872dd3033846040518463ffffffff1660e01b815260040161041d93929190611b3b565b600060405180830381600087803b15801561043757600080fd5b505af115801561044b573d6000803e3d6000fd5b505050506104593382611636565b6008600460003373ffffffffffffffffffffffffffffffffffffffff1673ffffffffffffffffffffffffffffffffffffffff1681526020019081526020016000205411156104f9576002600460003373ffffffffffffffffffffffffffffffffffffffff1673ffffffffffffffffffffffffffffffffffffffff16815260200190815260200160002060008282546104f19190611ba1565b925050819055505b3373ffffffffffffffffffffffffffffffffffffffff167f2aa1b4c95f3b2da9c955947fca584743ea0d457708fadf209c093061e98c4ccb8260405161053f9190611851565b60405180910390a250565b60008054906101000a900473ffffffffffffffffffffffffffffffffffffffff1681565b61271081565b60036020528060005260406000206000915090505481565b6000600260003373ffffffffffffffffffffffffffffffffffffffff1673ffffffffffffffffffffffffffffffffffffffff16815260200190815260200160002090506000816002015411610616576040517f08c379a000000000000000000000000000000000000000000000000000000000815260040161060d90611c21565b60405180910390fd5b60008211801561062a575080600201548211155b610669576040517f08c379a000000000000000000000000000000000000000000000000000000000815260040161066090611c8d565b60405180910390fd5b61012c816004015461067b9190611cad565b4210156106bd576040517f08c379a00000000000000000000000000000000000000000000000000000000081526004016106b490611d53565b60405180910390fd5b60006106c83361112c565b905060008183600301546106dc9190611cad565b905060008360030181905550428360040181905550600081856106ff9190611cad565b9050848460020160008282546107159190611ba1565b9250508190555060018460010160008282546107319190611cad565b9250508190555060008054906101000a900473ffffffffffffffffffffffffffffffffffffffff1673ffffffffffffffffffffffffffffffffffffffff16635f7807a433836040518363ffffffff1660e01b8152600401610793929190611d73565b600060405180830381600087803b1580156107ad57600080fd5b505af11580156107c1573d6000803e3d6000fd5b50505050600084600201540361085b57600260003373ffffffffffffffffffffffffffffffffffffffff1673ffffffffffffffffffffffffffffffffffffffff168152602001908152602001600020600080820160006101000a81549073ffffffffffffffffffffffffffffffffffffffff0219169055600182016000905560028201600090556003820160009055600482016000905550505b3373ffffffffffffffffffffffffffffffffffffffff167f7084f5476618d8e60b11ef0d7d3f06914655adb8793e28ff7f018d4c76d505d5866040516108a19190611851565b60405180910390a23373ffffffffffffffffffffffffffffffffffffffff167f106f923f993c2149d49b4255ff723acafa1f2d94393f561d3eda32ae348f7241836040516108ef9190611851565b60405180910390a25050505050565b61012c81565b6000806000600260008573ffffffffffffffffffffffffffffffffffffffff1673ffffffffffffffffffffffffffffffffffffffff1681526020019081526020016000206040518060a00160405290816000820160009054906101000a900473ffffffffffffffffffffffffffffffffffffffff1673ffffffffffffffffffffffffffffffffffffffff1673ffffffffffffffffffffffffffffffffffffffff1681526020016001820154815260200160028201548152602001600382015481526020016004820154815250509050806040015181608001519250925050915091565b60046020528060005260406000206000915090505481565b600160009054906101000a900473ffffffffffffffffffffffffffffffffffffffff1681565b6060600560008373ffffffffffffffffffffffffffffffffffffffff1673ffffffffffffffffffffffffffffffffffffffff168152602001908152602001600020805480602002602001604051908101604052809291908181526020018280548015610ab057602002820191906000526020600020905b815481526020019060010190808311610a9c575b50505050509050919050565b60008111610aff576040517f08c379a0000000000000000000000000000000000000000000000000000000008152600401610af690611de8565b60405180910390fd5b60008054906101000a900473ffffffffffffffffffffffffffffffffffffffff1673ffffffffffffffffffffffffffffffffffffffff166323b872dd3330846040518463ffffffff1660e01b8152600401610b5c93929190611b3b565b6020604051808303816000875af1158015610b7b573d6000803e3d6000fd5b505050506040513d601f19601f82011682018060405250810190610b9f9190611e40565b610bde576040517f08c379a0000000000000000000000000000000000000000000000000000000008152600401610bd590611eb9565b60405180910390fd5b6127108110610cb857600160009054906101000a900473ffffffffffffffffffffffffffffffffffffffff1673ffffffffffffffffffffffffffffffffffffffff166354ba0f27336040518263ffffffff1660e01b8152600401610c429190611ed9565b600060405180830381600087803b158015610c5c57600080fd5b505af1158015610c70573d6000803e3d6000fd5b505050503373ffffffffffffffffffffffffffffffffffffffff167f5fa41db5e47ff1475562c0ce3ae7cfb8b3871c210095b651c6d203e662354a2a60405160405180910390a25b6000600260003373ffffffffffffffffffffffffffffffffffffffff1673ffffffffffffffffffffffffffffffffffffffff16815260200190815260200160002090506000816001015403610da2576000600460003373ffffffffffffffffffffffffffffffffffffffff1673ffffffffffffffffffffffffffffffffffffffff1681526020019081526020016000205403610d94576008600460003373ffffffffffffffffffffffffffffffffffffffff1673ffffffffffffffffffffffffffffffffffffffff168152602001908152602001600020819055505b428160040181905550610dd5565b6000610dad3361112c565b905080826003016000828254610dc39190611cad565b92505081905550428260040181905550505b338160000160006101000a81548173ffffffffffffffffffffffffffffffffffffffff021916908373ffffffffffffffffffffffffffffffffffffffff16021790555081816002016000828254610e2c9190611cad565b925050819055506001816001016000828254610e489190611cad565b925050819055503373ffffffffffffffffffffffffffffffffffffffff167f2da466a7b24304f47e87fa2e1e5a81b9831ce54fec19055ce277ca2f39ba42c483604051610e959190611851565b60405180910390a25050565b6000600260003373ffffffffffffffffffffffffffffffffffffffff1673ffffffffffffffffffffffffffffffffffffffff16815260200190815260200160002090506000816002015411610f2b576040517f08c379a0000000000000000000000000000000000000000000000000000000008152600401610f2290611c21565b60405180910390fd5b61012c8160040154610f3d9190611cad565b421015610f7f576040517f08c379a0000000000000000000000000000000000000000000000000000000008152600401610f7690611f8c565b60405180910390fd5b6000610f8a3361112c565b90506000818360030154610f9e9190611cad565b905060008111610fe3576040517f08c379a0000000000000000000000000000000000000000000000000000000008152600401610fda90611ff8565b60405180910390fd5b6000836003018190555042836004018190555080600360003373ffffffffffffffffffffffffffffffffffffffff1673ffffffffffffffffffffffffffffffffffffffff16815260200190815260200160002060008282546110459190611cad565b9250508190555060008054906101000a900473ffffffffffffffffffffffffffffffffffffffff1673ffffffffffffffffffffffffffffffffffffffff16635f7807a433836040518363ffffffff1660e01b81526004016110a7929190611d73565b600060405180830381600087803b1580156110c157600080fd5b505af11580156110d5573d6000803e3d6000fd5b505050503373ffffffffffffffffffffffffffffffffffffffff167f106f923f993c2149d49b4255ff723acafa1f2d94393f561d3eda32ae348f72418260405161111f9190611851565b60405180910390a2505050565b600080600260008473ffffffffffffffffffffffffffffffffffffffff1673ffffffffffffffffffffffffffffffffffffffff1681526020019081526020016000206040518060a00160405290816000820160009054906101000a900473ffffffffffffffffffffffffffffffffffffffff1673ffffffffffffffffffffffffffffffffffffffff1673ffffffffffffffffffffffffffffffffffffffff16815260200160018201548152602001600282015481526020016003820154815260200160048201548152505090506000816040015111611240576040517f08c379a000000000000000000000000000000000000000000000000000000000815260040161123790611c21565b60405180910390fd5b60008160800151426112529190611ba1565b9050600080600460008773ffffffffffffffffffffffffffffffffffffffff1673ffffffffffffffffffffffffffffffffffffffff16815260200190815260200160002054116112a35760086112e4565b600460008673ffffffffffffffffffffffffffffffffffffffff1673ffffffffffffffffffffffffffffffffffffffff168152602001908152602001600020545b9050600063bbf81e00838386604001516112fe9190612018565b6113089190612018565b6113129190612089565b905080945050505050919050565b600881565b600160009054906101000a900473ffffffffffffffffffffffffffffffffffffffff1673ffffffffffffffffffffffffffffffffffffffff166323b872dd3330846040518463ffffffff1660e01b815260040161138493929190611b3b565b600060405180830381600087803b15801561139e57600080fd5b505af11580156113b2573d6000803e3d6000fd5b505050506002600460003373ffffffffffffffffffffffffffffffffffffffff1673ffffffffffffffffffffffffffffffffffffffff16815260200190815260200160002060008282546114069190611cad565b92505081905550600560003373ffffffffffffffffffffffffffffffffffffffff1673ffffffffffffffffffffffffffffffffffffffff1681526020019081526020016000208190806001815401808255809150506001900390600052602060002001600090919091909150553373ffffffffffffffffffffffffffffffffffffffff167f1c4b8380f61aea3d5d98cbadaf2e6b2e4f3d8ca8c0fce1290b26ac267158745f826040516114b99190611851565b60405180910390a250565b600560205281600052604060002081815481106114e057600080fd5b90600052602060002001600091509150505481565b60026020528060005260406000206000915090508060000160009054906101000a900473ffffffffffffffffffffffffffffffffffffffff16908060010154908060020154908060030154908060040154905085565b600080600560008573ffffffffffffffffffffffffffffffffffffffff1673ffffffffffffffffffffffffffffffffffffffff1681526020019081526020016000208054806020026020016040519081016040528092919081815260200182805480156115d757602002820191906000526020600020905b8154815260200190600101908083116115c3575b5050505050905060005b815181101561162957838282815181106115fe576115fd6120ba565b5b60200260200101510361161657600192505050611630565b8080611621906120e9565b9150506115e1565b5060009150505b92915050565b6000600560008473ffffffffffffffffffffffffffffffffffffffff1673ffffffffffffffffffffffffffffffffffffffff168152602001908152602001600020905060005b818054905081101561173a578282828154811061169c5761169b6120ba565b5b9060005260206000200154036117275781600183805490506116be9190611ba1565b815481106116cf576116ce6120ba565b5b90600052602060002001548282815481106116ed576116ec6120ba565b5b90600052602060002001819055508180548061170c5761170b612131565b5b6001900381819060005260206000200160009055905561173a565b8080611732906120e9565b91505061167c565b50505050565b600080fd5b6000819050919050565b61175881611745565b811461176357600080fd5b50565b6000813590506117758161174f565b92915050565b60006020828403121561179157611790611740565b5b600061179f84828501611766565b91505092915050565b600073ffffffffffffffffffffffffffffffffffffffff82169050919050565b6000819050919050565b60006117ed6117e86117e3846117a8565b6117c8565b6117a8565b9050919050565b60006117ff826117d2565b9050919050565b6000611811826117f4565b9050919050565b61182181611806565b82525050565b600060208201905061183c6000830184611818565b92915050565b61184b81611745565b82525050565b60006020820190506118666000830184611842565b92915050565b6000611877826117a8565b9050919050565b6118878161186c565b811461189257600080fd5b50565b6000813590506118a48161187e565b92915050565b6000602082840312156118c0576118bf611740565b5b60006118ce84828501611895565b91505092915050565b60006040820190506118ec6000830185611842565b6118f96020830184611842565b9392505050565b600061190b826117f4565b9050919050565b61191b81611900565b82525050565b60006020820190506119366000830184611912565b92915050565b600081519050919050565b600082825260208201905092915050565b6000819050602082019050919050565b61197181611745565b82525050565b60006119838383611968565b60208301905092915050565b6000602082019050919050565b60006119a78261193c565b6119b18185611947565b93506119bc83611958565b8060005b838110156119ed5781516119d48882611977565b97506119df8361198f565b9250506001810190506119c0565b5085935050505092915050565b60006020820190508181036000830152611a14818461199c565b905092915050565b60008060408385031215611a3357611a32611740565b5b6000611a4185828601611895565b9250506020611a5285828601611766565b9150509250929050565b611a658161186c565b82525050565b600060a082019050611a806000830188611a5c565b611a8d6020830187611842565b611a9a6040830186611842565b611aa76060830185611842565b611ab46080830184611842565b9695505050505050565b600082825260208201905092915050565b7f4e4654206e6f74206465706f7369746564000000000000000000000000000000600082015250565b6000611b05601183611abe565b9150611b1082611acf565b602082019050919050565b60006020820190508181036000830152611b3481611af8565b9050919050565b6000606082019050611b506000830186611a5c565b611b5d6020830185611a5c565b611b6a6040830184611842565b949350505050565b7f4e487b7100000000000000000000000000000000000000000000000000000000600052601160045260246000fd5b6000611bac82611745565b9150611bb783611745565b9250828203905081811115611bcf57611bce611b72565b5b92915050565b7f4e6f206465706f73697420666f756e6400000000000000000000000000000000600082015250565b6000611c0b601083611abe565b9150611c1682611bd5565b602082019050919050565b60006020820190508181036000830152611c3a81611bfe565b9050919050565b7f496e76616c6964207769746864726177616c20616d6f756e7400000000000000600082015250565b6000611c77601983611abe565b9150611c8282611c41565b602082019050919050565b60006020820190508181036000830152611ca681611c6a565b9050919050565b6000611cb882611745565b9150611cc383611745565b9250828201905080821115611cdb57611cda611b72565b5b92915050565b7f596f75206d75737420776169742035206d696e7574657320616674657220646560008201527f706f736974696e67206265666f7265207769746864726177696e672e00000000602082015250565b6000611d3d603c83611abe565b9150611d4882611ce1565b604082019050919050565b60006020820190508181036000830152611d6c81611d30565b9050919050565b6000604082019050611d886000830185611a5c565b611d956020830184611842565b9392505050565b7f416d6f756e74206d7573742062652067726561746572207468616e2030000000600082015250565b6000611dd2601d83611abe565b9150611ddd82611d9c565b602082019050919050565b60006020820190508181036000830152611e0181611dc5565b9050919050565b60008115159050919050565b611e1d81611e08565b8114611e2857600080fd5b50565b600081519050611e3a81611e14565b92915050565b600060208284031215611e5657611e55611740565b5b6000611e6484828501611e2b565b91505092915050565b7f5472616e73666572206661696c65640000000000000000000000000000000000600082015250565b6000611ea3600f83611abe565b9150611eae82611e6d565b602082019050919050565b60006020820190508181036000830152611ed281611e96565b9050919050565b6000602082019050611eee6000830184611a5c565b92915050565b7f596f75206d75737420776169742035206d696e7574657320616674657220646560008201527f706f736974696e67206265666f726520636c61696d696e67207265776172647360208201527f2e00000000000000000000000000000000000000000000000000000000000000604082015250565b6000611f76604183611abe565b9150611f8182611ef4565b606082019050919050565b60006020820190508181036000830152611fa581611f69565b9050919050565b7f4e6f207265776172647320617661696c61626c65000000000000000000000000600082015250565b6000611fe2601483611abe565b9150611fed82611fac565b602082019050919050565b6000602082019050818103600083015261201181611fd5565b9050919050565b600061202382611745565b915061202e83611745565b925082820261203c81611745565b9150828204841483151761205357612052611b72565b5b5092915050565b7f4e487b7100000000000000000000000000000000000000000000000000000000600052601260045260246000fd5b600061209482611745565b915061209f83611745565b9250826120af576120ae61205a565b5b828204905092915050565b7f4e487b7100000000000000000000000000000000000000000000000000000000600052603260045260246000fd5b60006120f482611745565b91507fffffffffffffffffffffffffffffffffffffffffffffffffffffffffffffffff820361212657612125611b72565b5b600182019050919050565b7f4e487b7100000000000000000000000000000000000000000000000000000000600052603160045260246000fdfea2646970667358221220d4ce22a5b13378fb16daed9a087ee2611b09945de988372b9af739f51cd8da2b64736f6c63430008140033",
  "linkReferences": {},
  "deployedLinkReferences": {}
}