{
  "_format": "hh-sol-artifact-1",
  "contractName": "Staking",
  "sourceName": "contracts/Staking.sol",
  "abi": [
    {
      "inputs": [
        {
          "internalType": "address",
          "name": "_tokenA",
          "type": "address"
        },
        {
          "internalType": "address",
          "name": "_tokenB",
          "type": "address"
        }
      ],
      "stateMutability": "nonpayable",
      "type": "constructor"
    },
    {
      "inputs": [],
      "name": "MathOverflowedMulDiv",
      "type": "error"
    },
    {
      "anonymous": false,
      "inputs": [
        {
          "indexed": true,
          "internalType": "address",
          "name": "user",
          "type": "address"
        },
        {
          "indexed": false,
          "internalType": "uint256",
          "name": "amount",
          "type": "uint256"
        }
      ],
      "name": "Deposited",
      "type": "event"
    },
    {
      "anonymous": false,
      "inputs": [
        {
          "indexed": true,
          "internalType": "address",
          "name": "user",
          "type": "address"
        },
        {
          "indexed": false,
          "internalType": "uint256",
          "name": "tokenId",
          "type": "uint256"
        }
      ],
      "name": "NFTDeposited",
      "type": "event"
    },
    {
      "anonymous": false,
      "inputs": [
        {
          "indexed": true,
          "internalType": "address",
          "name": "user",
          "type": "address"
        },
        {
          "indexed": false,
          "internalType": "uint256",
          "name": "tokenId",
          "type": "uint256"
        }
      ],
      "name": "NFTMinted",
      "type": "event"
    },
    {
      "anonymous": false,
      "inputs": [
        {
          "indexed": true,
          "internalType": "address",
          "name": "user",
          "type": "address"
        },
        {
          "indexed": false,
          "internalType": "uint256",
          "name": "tokenId",
          "type": "uint256"
        }
      ],
      "name": "NFTWithdrawn",
      "type": "event"
    },
    {
      "anonymous": false,
      "inputs": [
        {
          "indexed": true,
          "internalType": "address",
          "name": "user",
          "type": "address"
        },
        {
          "indexed": false,
          "internalType": "uint256",
          "name": "reward",
          "type": "uint256"
        }
      ],
      "name": "RewardClaimed",
      "type": "event"
    },
    {
      "anonymous": false,
      "inputs": [
        {
          "indexed": true,
          "internalType": "address",
          "name": "user",
          "type": "address"
        },
        {
          "indexed": false,
          "internalType": "uint256",
          "name": "amount",
          "type": "uint256"
        }
      ],
      "name": "Withdrawn",
      "type": "event"
    },
    {
      "inputs": [],
      "name": "BASE_APR",
      "outputs": [
        {
          "internalType": "uint256",
          "name": "",
          "type": "uint256"
        }
      ],
      "stateMutability": "view",
      "type": "function"
    },
    {
      "inputs": [],
      "name": "LOCK_TIME",
      "outputs": [
        {
          "internalType": "uint256",
          "name": "",
          "type": "uint256"
        }
      ],
      "stateMutability": "view",
      "type": "function"
    },
    {
      "inputs": [],
      "name": "MINT_THRESHOLD",
      "outputs": [
        {
          "internalType": "uint256",
          "name": "",
          "type": "uint256"
        }
      ],
      "stateMutability": "view",
      "type": "function"
    },
    {
      "inputs": [
        {
          "internalType": "address",
          "name": "user",
          "type": "address"
        }
      ],
      "name": "calculateReward",
      "outputs": [
        {
          "internalType": "uint256",
          "name": "",
          "type": "uint256"
        }
      ],
      "stateMutability": "view",
      "type": "function"
    },
    {
      "inputs": [],
      "name": "claimReward",
      "outputs": [],
      "stateMutability": "nonpayable",
      "type": "function"
    },
    {
      "inputs": [
        {
          "internalType": "uint256",
          "name": "_amount",
          "type": "uint256"
        }
      ],
      "name": "deposit",
      "outputs": [],
      "stateMutability": "nonpayable",
      "type": "function"
    },
    {
      "inputs": [
        {
          "internalType": "uint256",
          "name": "tokenId",
          "type": "uint256"
        }
      ],
      "name": "depositNFT",
      "outputs": [],
      "stateMutability": "nonpayable",
      "type": "function"
    },
    {
      "inputs": [
        {
          "internalType": "address",
          "name": "",
          "type": "address"
        },
        {
          "internalType": "uint256",
          "name": "",
          "type": "uint256"
        }
      ],
      "name": "depositedNFTs",
      "outputs": [
        {
          "internalType": "uint256",
          "name": "",
          "type": "uint256"
        }
      ],
      "stateMutability": "view",
      "type": "function"
    },
    {
      "inputs": [
        {
          "internalType": "address",
          "name": "",
          "type": "address"
        }
      ],
      "name": "deposits",
      "outputs": [
        {
          "internalType": "uint256",
          "name": "counter",
          "type": "uint256"
        },
        {
          "internalType": "uint256",
          "name": "amount",
          "type": "uint256"
        },
        {
          "internalType": "uint256",
          "name": "reward",
          "type": "uint256"
        },
        {
          "internalType": "uint256",
          "name": "timestamp",
          "type": "uint256"
        },
        {
          "internalType": "uint256",
          "name": "nftDepositedTime",
          "type": "uint256"
        },
        {
          "internalType": "uint256",
          "name": "userAPR",
          "type": "uint256"
        },
        {
          "internalType": "uint256",
          "name": "totalDepositedAmount",
          "type": "uint256"
        }
      ],
      "stateMutability": "view",
      "type": "function"
    },
    {
      "inputs": [
        {
          "internalType": "address",
          "name": "user",
          "type": "address"
        }
      ],
      "name": "getDepositInfo",
      "outputs": [
        {
          "internalType": "uint256",
          "name": "amount",
          "type": "uint256"
        },
        {
          "internalType": "uint256",
          "name": "timestamp",
          "type": "uint256"
        }
      ],
      "stateMutability": "view",
      "type": "function"
    },
    {
      "inputs": [
        {
          "internalType": "address",
          "name": "user",
          "type": "address"
        }
      ],
      "name": "getDepositedNFTs",
      "outputs": [
        {
          "internalType": "uint256[]",
          "name": "",
          "type": "uint256[]"
        }
      ],
      "stateMutability": "view",
      "type": "function"
    },
    {
      "inputs": [],
      "name": "lockTimestamp",
      "outputs": [
        {
          "internalType": "uint256",
          "name": "",
          "type": "uint256"
        }
      ],
      "stateMutability": "view",
      "type": "function"
    },
    {
      "inputs": [
        {
          "internalType": "address",
          "name": "",
          "type": "address"
        }
      ],
      "name": "mintedNFTs",
      "outputs": [
        {
          "internalType": "uint256",
          "name": "",
          "type": "uint256"
        }
      ],
      "stateMutability": "view",
      "type": "function"
    },
    {
      "inputs": [],
      "name": "tokenA",
      "outputs": [
        {
          "internalType": "contract TokenA",
          "name": "",
          "type": "address"
        }
      ],
      "stateMutability": "view",
      "type": "function"
    },
    {
      "inputs": [],
      "name": "tokenB",
      "outputs": [
        {
          "internalType": "contract TokenB",
          "name": "",
          "type": "address"
        }
      ],
      "stateMutability": "view",
      "type": "function"
    },
    {
      "inputs": [],
      "name": "withdraw",
      "outputs": [],
      "stateMutability": "nonpayable",
      "type": "function"
    },
    {
      "inputs": [
        {
          "internalType": "uint256",
          "name": "tokenId",
          "type": "uint256"
        }
      ],
      "name": "withdrawNFT",
      "outputs": [],
      "stateMutability": "nonpayable",
      "type": "function"
    }
  ],
  "bytecode": "0x60806040523480156200001157600080fd5b50604051620024e9380380620024e983398181016040528101906200003791906200012a565b816000806101000a81548173ffffffffffffffffffffffffffffffffffffffff021916908373ffffffffffffffffffffffffffffffffffffffff16021790555080600160006101000a81548173ffffffffffffffffffffffffffffffffffffffff021916908373ffffffffffffffffffffffffffffffffffffffff160217905550505062000171565b600080fd5b600073ffffffffffffffffffffffffffffffffffffffff82169050919050565b6000620000f282620000c5565b9050919050565b6200010481620000e5565b81146200011057600080fd5b50565b6000815190506200012481620000f9565b92915050565b60008060408385031215620001445762000143620000c0565b5b6000620001548582860162000113565b9250506020620001678582860162000113565b9150509250929050565b61236880620001816000396000f3fe608060405234801561001057600080fd5b506004361061010b5760003560e01c8063b544bf83116100a2578063d82e396211610071578063d82e396214610283578063e4fd18c9146102b3578063e91a7ca6146102d1578063f6e39124146102ed578063fc7e286d1461031d5761010b565b8063b544bf831461020f578063b6b55f251461022d578063b88a802f14610249578063ba060bed146102535761010b565b8063413d9c3a116100de578063413d9c3a146101725780635287ce12146101905780635f64b55b146101c1578063b36b26c5146101df5761010b565b8063023245d7146101105780630fc63d101461012c578063134551281461014a5780633ccfd60b14610168575b600080fd5b61012a600480360381019061012591906118f5565b610353565b005b610134610584565b60405161014191906119a1565b60405180910390f35b6101526105a8565b60405161015f91906119cb565b60405180910390f35b6101706105b6565b005b61017a61097d565b60405161018791906119cb565b60405180910390f35b6101aa60048036038101906101a59190611a24565b610982565b6040516101b8929190611a51565b60405180910390f35b6101c9610a2d565b6040516101d69190611a9b565b60405180910390f35b6101f960048036038101906101f49190611a24565b610a53565b6040516102069190611b74565b60405180910390f35b610217610aea565b60405161022491906119cb565b60405180910390f35b610247600480360381019061024291906118f5565b610af0565b005b610251610f00565b005b61026d60048036038101906102689190611a24565b611187565b60405161027a91906119cb565b60405180910390f35b61029d60048036038101906102989190611a24565b61119f565b6040516102aa91906119cb565b60405180910390f35b6102bb611355565b6040516102c891906119cb565b60405180910390f35b6102eb60048036038101906102e691906118f5565b61135a565b005b61030760048036038101906103029190611b96565b61154b565b60405161031491906119cb565b60405180910390f35b61033760048036038101906103329190611a24565b61157c565b60405161034a9796959493929190611bd6565b60405180910390f35b600254421015610398576040517f08c379a000000000000000000000000000000000000000000000000000000000815260040161038f90611ca2565b60405180910390fd5b6103a233826115be565b6103e1576040517f08c379a00000000000000000000000000000000000000000000000000000000081526004016103d890611d0e565b60405180910390fd5b600160009054906101000a900473ffffffffffffffffffffffffffffffffffffffff1673ffffffffffffffffffffffffffffffffffffffff166323b872dd3033846040518463ffffffff1660e01b815260040161044093929190611d3d565b600060405180830381600087803b15801561045a57600080fd5b505af115801561046e573d6000803e3d6000fd5b505050506000600360003373ffffffffffffffffffffffffffffffffffffffff1673ffffffffffffffffffffffffffffffffffffffff16815260200190815260200160002090506000816001015411156104ec5760006104cd3361119f565b9050808260020160008282546104e39190611da3565b92505081905550505b60088160050154111561051657600281600501600082825461050e9190611dd7565b925050819055505b42816003018190555042816004018190555061053233836116a9565b3373ffffffffffffffffffffffffffffffffffffffff167f2aa1b4c95f3b2da9c955947fca584743ea0d457708fadf209c093061e98c4ccb8360405161057891906119cb565b60405180910390a25050565b60008054906101000a900473ffffffffffffffffffffffffffffffffffffffff1681565b69d3c21bcecceda100000081565b6000600360003373ffffffffffffffffffffffffffffffffffffffff1673ffffffffffffffffffffffffffffffffffffffff16815260200190815260200160002090506000816001015411610640576040517f08c379a000000000000000000000000000000000000000000000000000000000815260040161063790611e57565b60405180910390fd5b600254421015610685576040517f08c379a000000000000000000000000000000000000000000000000000000000815260040161067c90611ec3565b60405180910390fd5b600081600201546106953361119f565b61069f9190611da3565b905060008054906101000a900473ffffffffffffffffffffffffffffffffffffffff1673ffffffffffffffffffffffffffffffffffffffff1663a9059cbb3384600101546040518363ffffffff1660e01b8152600401610700929190611ee3565b6020604051808303816000875af115801561071f573d6000803e3d6000fd5b505050506040513d601f19601f820116820180604052508101906107439190611f44565b610782576040517f08c379a000000000000000000000000000000000000000000000000000000000815260040161077990611fbd565b60405180910390fd5b60008054906101000a900473ffffffffffffffffffffffffffffffffffffffff1673ffffffffffffffffffffffffffffffffffffffff166315490ebb33836040518363ffffffff1660e01b81526004016107dd929190611ee3565b6020604051808303816000875af11580156107fc573d6000803e3d6000fd5b505050506040513d601f19601f820116820180604052508101906108209190611f44565b61085f576040517f08c379a000000000000000000000000000000000000000000000000000000000815260040161085690612029565b60405180910390fd5b3373ffffffffffffffffffffffffffffffffffffffff167f7084f5476618d8e60b11ef0d7d3f06914655adb8793e28ff7f018d4c76d505d583600101546040516108a991906119cb565b60405180910390a23373ffffffffffffffffffffffffffffffffffffffff167f106f923f993c2149d49b4255ff723acafa1f2d94393f561d3eda32ae348f7241826040516108f791906119cb565b60405180910390a2600360003373ffffffffffffffffffffffffffffffffffffffff1673ffffffffffffffffffffffffffffffffffffffff16815260200190815260200160002060008082016000905560018201600090556002820160009055600382016000905560048201600090556005820160009055600682016000905550505050565b601e81565b6000806000600360008573ffffffffffffffffffffffffffffffffffffffff1673ffffffffffffffffffffffffffffffffffffffff1681526020019081526020016000206040518060e00160405290816000820154815260200160018201548152602001600282015481526020016003820154815260200160048201548152602001600582015481526020016006820154815250509050806020015181606001519250925050915091565b600160009054906101000a900473ffffffffffffffffffffffffffffffffffffffff1681565b6060600460008373ffffffffffffffffffffffffffffffffffffffff1673ffffffffffffffffffffffffffffffffffffffff168152602001908152602001600020805480602002602001604051908101604052809291908181526020018280548015610ade57602002820191906000526020600020905b815481526020019060010190808311610aca575b50505050509050919050565b60025481565b60008111610b33576040517f08c379a0000000000000000000000000000000000000000000000000000000008152600401610b2a90612095565b60405180910390fd5b60008054906101000a900473ffffffffffffffffffffffffffffffffffffffff1673ffffffffffffffffffffffffffffffffffffffff166323b872dd3330846040518463ffffffff1660e01b8152600401610b9093929190611d3d565b6020604051808303816000875af1158015610baf573d6000803e3d6000fd5b505050506040513d601f19601f82011682018060405250810190610bd39190611f44565b610c12576040517f08c379a0000000000000000000000000000000000000000000000000000000008152600401610c0990612101565b60405180910390fd5b6000600360003373ffffffffffffffffffffffffffffffffffffffff1673ffffffffffffffffffffffffffffffffffffffff16815260200190815260200160002090506000816000015403610c86576000816005015403610c7857600881600501819055505b428160030181905550610cb0565b6000610c913361119f565b905080826002016000828254610ca79190611da3565b92505081905550505b600081600401541115610cc7574281600401819055505b81816001016000828254610cdb9190611da3565b9250508190555081816006016000828254610cf69190611da3565b925050819055506001816000016000828254610d129190611da3565b92505081905550428160030181905550601e42610d2f9190611da3565b6002819055506000600560003373ffffffffffffffffffffffffffffffffffffffff1673ffffffffffffffffffffffffffffffffffffffff1681526020019081526020016000205469d3c21bcecceda10000008360060154610d919190612150565b610d9b9190611dd7565b905060005b81811015610eac576000600160009054906101000a900473ffffffffffffffffffffffffffffffffffffffff1673ffffffffffffffffffffffffffffffffffffffff166354ba0f27336040518263ffffffff1660e01b8152600401610e059190612181565b6020604051808303816000875af1158015610e24573d6000803e3d6000fd5b505050506040513d601f19601f82011682018060405250810190610e4891906121b1565b90503373ffffffffffffffffffffffffffffffffffffffff167f4cc0a9c4a99ddc700de1af2c9f916a7cbfdb71f14801ccff94061ad1ef8a804082604051610e9091906119cb565b60405180910390a2508080610ea4906121de565b915050610da0565b503373ffffffffffffffffffffffffffffffffffffffff167f2da466a7b24304f47e87fa2e1e5a81b9831ce54fec19055ce277ca2f39ba42c484604051610ef391906119cb565b60405180910390a2505050565b6000600360003373ffffffffffffffffffffffffffffffffffffffff1673ffffffffffffffffffffffffffffffffffffffff16815260200190815260200160002090506000816001015411610f8a576040517f08c379a0000000000000000000000000000000000000000000000000000000008152600401610f8190611e57565b60405180910390fd5b600254421015610fcf576040517f08c379a0000000000000000000000000000000000000000000000000000000008152600401610fc690611ec3565b60405180910390fd5b60008160020154610fdf3361119f565b610fe99190611da3565b90506000811161102e576040517f08c379a000000000000000000000000000000000000000000000000000000000815260040161102590612272565b60405180910390fd5b60008054906101000a900473ffffffffffffffffffffffffffffffffffffffff1673ffffffffffffffffffffffffffffffffffffffff166315490ebb33836040518363ffffffff1660e01b8152600401611089929190611ee3565b6020604051808303816000875af11580156110a8573d6000803e3d6000fd5b505050506040513d601f19601f820116820180604052508101906110cc9190611f44565b61110b576040517f08c379a000000000000000000000000000000000000000000000000000000000815260040161110290612029565b60405180910390fd5b60008260020181905550428260030181905550600082600401541115611135574282600401819055505b3373ffffffffffffffffffffffffffffffffffffffff167f106f923f993c2149d49b4255ff723acafa1f2d94393f561d3eda32ae348f72418260405161117b91906119cb565b60405180910390a25050565b60056020528060005260406000206000915090505481565b600080600360008473ffffffffffffffffffffffffffffffffffffffff1673ffffffffffffffffffffffffffffffffffffffff1681526020019081526020016000206040518060e00160405290816000820154815260200160018201548152602001600282015481526020016003820154815260200160048201548152602001600582015481526020016006820154815250509050600081602001510361124a576000915050611350565b600081606001514261125c9190611dd7565b90506000808360a0015111611272576008611278565b8260a001515b90506000806000856080015190506000811115611307576112c98660600151826112a29190611dd7565b600888602001516112b39190612292565b6112bd9190612292565b600163bbf81e006117b3565b925061130081426112da9190611dd7565b8588602001516112ea9190612292565b6112f49190612292565b600163bbf81e006117b3565b9150611335565b611332856008886020015161131c9190612292565b6113269190612292565b600163bbf81e006117b3565b92505b600082846113439190611da3565b9050809750505050505050505b919050565b600881565b600160009054906101000a900473ffffffffffffffffffffffffffffffffffffffff1673ffffffffffffffffffffffffffffffffffffffff166323b872dd3330846040518463ffffffff1660e01b81526004016113b993929190611d3d565b600060405180830381600087803b1580156113d357600080fd5b505af11580156113e7573d6000803e3d6000fd5b505050506000600360003373ffffffffffffffffffffffffffffffffffffffff1673ffffffffffffffffffffffffffffffffffffffff16815260200190815260200160002090506000816001015411156114655760006114463361119f565b90508082600201600082825461145c9190611da3565b92505081905550505b600281600501600082825461147a9190611da3565b92505081905550428160040181905550600460003373ffffffffffffffffffffffffffffffffffffffff1673ffffffffffffffffffffffffffffffffffffffff1681526020019081526020016000208290806001815401808255809150506001900390600052602060002001600090919091909150554281600301819055503373ffffffffffffffffffffffffffffffffffffffff167f1c4b8380f61aea3d5d98cbadaf2e6b2e4f3d8ca8c0fce1290b26ac267158745f8360405161153f91906119cb565b60405180910390a25050565b6004602052816000526040600020818154811061156757600080fd5b90600052602060002001600091509150505481565b60036020528060005260406000206000915090508060000154908060010154908060020154908060030154908060040154908060050154908060060154905087565b600080600460008573ffffffffffffffffffffffffffffffffffffffff1673ffffffffffffffffffffffffffffffffffffffff16815260200190815260200160002080548060200260200160405190810160405280929190818152602001828054801561164a57602002820191906000526020600020905b815481526020019060010190808311611636575b5050505050905060005b815181101561169c5783828281518110611671576116706122d4565b5b602002602001015103611689576001925050506116a3565b8080611694906121de565b915050611654565b5060009150505b92915050565b6000600460008473ffffffffffffffffffffffffffffffffffffffff1673ffffffffffffffffffffffffffffffffffffffff168152602001908152602001600020905060005b81805490508110156117ad578282828154811061170f5761170e6122d4565b5b90600052602060002001540361179a5781600183805490506117319190611dd7565b81548110611742576117416122d4565b5b90600052602060002001548282815481106117605761175f6122d4565b5b90600052602060002001819055508180548061177f5761177e612303565b5b600190038181906000526020600020016000905590556117ad565b80806117a5906121de565b9150506116ef565b50505050565b60008083850290506000801985870982811083820303915050600081036117ee578382816117e4576117e3612121565b5b04925050506118b3565b808411611827576040517f227bc15300000000000000000000000000000000000000000000000000000000815260040160405180910390fd5b600084868809905082811182039150808303925060008560000386169050808604955080840493506001818260000304019050808302841793506000600287600302189050808702600203810290508087026002038102905080870260020381029050808702600203810290508087026002038102905080870260020381029050808502955050505050505b9392505050565b600080fd5b6000819050919050565b6118d2816118bf565b81146118dd57600080fd5b50565b6000813590506118ef816118c9565b92915050565b60006020828403121561190b5761190a6118ba565b5b6000611919848285016118e0565b91505092915050565b600073ffffffffffffffffffffffffffffffffffffffff82169050919050565b6000819050919050565b600061196761196261195d84611922565b611942565b611922565b9050919050565b60006119798261194c565b9050919050565b600061198b8261196e565b9050919050565b61199b81611980565b82525050565b60006020820190506119b66000830184611992565b92915050565b6119c5816118bf565b82525050565b60006020820190506119e060008301846119bc565b92915050565b60006119f182611922565b9050919050565b611a01816119e6565b8114611a0c57600080fd5b50565b600081359050611a1e816119f8565b92915050565b600060208284031215611a3a57611a396118ba565b5b6000611a4884828501611a0f565b91505092915050565b6000604082019050611a6660008301856119bc565b611a7360208301846119bc565b9392505050565b6000611a858261196e565b9050919050565b611a9581611a7a565b82525050565b6000602082019050611ab06000830184611a8c565b92915050565b600081519050919050565b600082825260208201905092915050565b6000819050602082019050919050565b611aeb816118bf565b82525050565b6000611afd8383611ae2565b60208301905092915050565b6000602082019050919050565b6000611b2182611ab6565b611b2b8185611ac1565b9350611b3683611ad2565b8060005b83811015611b67578151611b4e8882611af1565b9750611b5983611b09565b925050600181019050611b3a565b5085935050505092915050565b60006020820190508181036000830152611b8e8184611b16565b905092915050565b60008060408385031215611bad57611bac6118ba565b5b6000611bbb85828601611a0f565b9250506020611bcc858286016118e0565b9150509250929050565b600060e082019050611beb600083018a6119bc565b611bf860208301896119bc565b611c0560408301886119bc565b611c1260608301876119bc565b611c1f60808301866119bc565b611c2c60a08301856119bc565b611c3960c08301846119bc565b98975050505050505050565b600082825260208201905092915050565b7f546f6b656e7320617265207374696c6c206c6f636b6564210000000000000000600082015250565b6000611c8c601883611c45565b9150611c9782611c56565b602082019050919050565b60006020820190508181036000830152611cbb81611c7f565b9050919050565b7f4e4654206e6f74206465706f7369746564000000000000000000000000000000600082015250565b6000611cf8601183611c45565b9150611d0382611cc2565b602082019050919050565b60006020820190508181036000830152611d2781611ceb565b9050919050565b611d37816119e6565b82525050565b6000606082019050611d526000830186611d2e565b611d5f6020830185611d2e565b611d6c60408301846119bc565b949350505050565b7f4e487b7100000000000000000000000000000000000000000000000000000000600052601160045260246000fd5b6000611dae826118bf565b9150611db9836118bf565b9250828201905080821115611dd157611dd0611d74565b5b92915050565b6000611de2826118bf565b9150611ded836118bf565b9250828203905081811115611e0557611e04611d74565b5b92915050565b7f4e6f206465706f73697420666f756e6400000000000000000000000000000000600082015250565b6000611e41601083611c45565b9150611e4c82611e0b565b602082019050919050565b60006020820190508181036000830152611e7081611e34565b9050919050565b7f546f6b656e7320617265207374696c6c206c6f636b6564000000000000000000600082015250565b6000611ead601783611c45565b9150611eb882611e77565b602082019050919050565b60006020820190508181036000830152611edc81611ea0565b9050919050565b6000604082019050611ef86000830185611d2e565b611f0560208301846119bc565b9392505050565b60008115159050919050565b611f2181611f0c565b8114611f2c57600080fd5b50565b600081519050611f3e81611f18565b92915050565b600060208284031215611f5a57611f596118ba565b5b6000611f6884828501611f2f565b91505092915050565b7f5472616e7366657220616d6f756e74206661696c656400000000000000000000600082015250565b6000611fa7601683611c45565b9150611fb282611f71565b602082019050919050565b60006020820190508181036000830152611fd681611f9a565b9050919050565b7f5472616e7366657220726577617264206661696c656400000000000000000000600082015250565b6000612013601683611c45565b915061201e82611fdd565b602082019050919050565b6000602082019050818103600083015261204281612006565b9050919050565b7f416d6f756e74206d7573742062652067726561746572207468616e2030000000600082015250565b600061207f601d83611c45565b915061208a82612049565b602082019050919050565b600060208201905081810360008301526120ae81612072565b9050919050565b7f5472616e73666572206661696c65640000000000000000000000000000000000600082015250565b60006120eb600f83611c45565b91506120f6826120b5565b602082019050919050565b6000602082019050818103600083015261211a816120de565b9050919050565b7f4e487b7100000000000000000000000000000000000000000000000000000000600052601260045260246000fd5b600061215b826118bf565b9150612166836118bf565b92508261217657612175612121565b5b828204905092915050565b60006020820190506121966000830184611d2e565b92915050565b6000815190506121ab816118c9565b92915050565b6000602082840312156121c7576121c66118ba565b5b60006121d58482850161219c565b91505092915050565b60006121e9826118bf565b91507fffffffffffffffffffffffffffffffffffffffffffffffffffffffffffffffff820361221b5761221a611d74565b5b600182019050919050565b7f4e6f207265776172647320617661696c61626c65000000000000000000000000600082015250565b600061225c601483611c45565b915061226782612226565b602082019050919050565b6000602082019050818103600083015261228b8161224f565b9050919050565b600061229d826118bf565b91506122a8836118bf565b92508282026122b6816118bf565b915082820484148315176122cd576122cc611d74565b5b5092915050565b7f4e487b7100000000000000000000000000000000000000000000000000000000600052603260045260246000fd5b7f4e487b7100000000000000000000000000000000000000000000000000000000600052603160045260246000fdfea2646970667358221220e6aa497052c36334d7917ea3974b7179c1a0fe203f0c960174f2029c7e198c0864736f6c63430008140033",
  "linkReferences": {},
  "deployedLinkReferences": {}
}