{
  "_format": "hh-sol-artifact-1",
  "contractName": "TokenA",
  "sourceName": "contracts/TokenA.sol",
  "abi": [
    {
      "inputs": [],
      "stateMutability": "nonpayable",
      "type": "constructor"
    },
    {
      "inputs": [
        {
          "internalType": "address",
          "name": "spender",
          "type": "address"
        },
        {
          "internalType": "uint256",
          "name": "allowance",
          "type": "uint256"
        },
        {
          "internalType": "uint256",
          "name": "needed",
          "type": "uint256"
        }
      ],
      "name": "ERC20InsufficientAllowance",
      "type": "error"
    },
    {
      "inputs": [
        {
          "internalType": "address",
          "name": "sender",
          "type": "address"
        },
        {
          "internalType": "uint256",
          "name": "balance",
          "type": "uint256"
        },
        {
          "internalType": "uint256",
          "name": "needed",
          "type": "uint256"
        }
      ],
      "name": "ERC20InsufficientBalance",
      "type": "error"
    },
    {
      "inputs": [
        {
          "internalType": "address",
          "name": "approver",
          "type": "address"
        }
      ],
      "name": "ERC20InvalidApprover",
      "type": "error"
    },
    {
      "inputs": [
        {
          "internalType": "address",
          "name": "receiver",
          "type": "address"
        }
      ],
      "name": "ERC20InvalidReceiver",
      "type": "error"
    },
    {
      "inputs": [
        {
          "internalType": "address",
          "name": "sender",
          "type": "address"
        }
      ],
      "name": "ERC20InvalidSender",
      "type": "error"
    },
    {
      "inputs": [
        {
          "internalType": "address",
          "name": "spender",
          "type": "address"
        }
      ],
      "name": "ERC20InvalidSpender",
      "type": "error"
    },
    {
      "anonymous": false,
      "inputs": [
        {
          "indexed": true,
          "internalType": "address",
          "name": "owner",
          "type": "address"
        },
        {
          "indexed": true,
          "internalType": "address",
          "name": "spender",
          "type": "address"
        },
        {
          "indexed": false,
          "internalType": "uint256",
          "name": "value",
          "type": "uint256"
        }
      ],
      "name": "Approval",
      "type": "event"
    },
    {
      "anonymous": false,
      "inputs": [
        {
          "indexed": true,
          "internalType": "address",
          "name": "from",
          "type": "address"
        },
        {
          "indexed": true,
          "internalType": "address",
          "name": "to",
          "type": "address"
        },
        {
          "indexed": false,
          "internalType": "uint256",
          "name": "value",
          "type": "uint256"
        }
      ],
      "name": "Transfer",
      "type": "event"
    },
    {
      "inputs": [
        {
          "internalType": "address",
          "name": "owner",
          "type": "address"
        },
        {
          "internalType": "address",
          "name": "spender",
          "type": "address"
        }
      ],
      "name": "allowance",
      "outputs": [
        {
          "internalType": "uint256",
          "name": "",
          "type": "uint256"
        }
      ],
      "stateMutability": "view",
      "type": "function"
    },
    {
      "inputs": [
        {
          "internalType": "address",
          "name": "spender",
          "type": "address"
        },
        {
          "internalType": "uint256",
          "name": "value",
          "type": "uint256"
        }
      ],
      "name": "approve",
      "outputs": [
        {
          "internalType": "bool",
          "name": "",
          "type": "bool"
        }
      ],
      "stateMutability": "nonpayable",
      "type": "function"
    },
    {
      "inputs": [
        {
          "internalType": "address",
          "name": "account",
          "type": "address"
        }
      ],
      "name": "balanceOf",
      "outputs": [
        {
          "internalType": "uint256",
          "name": "",
          "type": "uint256"
        }
      ],
      "stateMutability": "view",
      "type": "function"
    },
    {
      "inputs": [
        {
          "internalType": "uint256",
          "name": "amount",
          "type": "uint256"
        }
      ],
      "name": "claimTokens",
      "outputs": [],
      "stateMutability": "nonpayable",
      "type": "function"
    },
    {
      "inputs": [],
      "name": "decimals",
      "outputs": [
        {
          "internalType": "uint8",
          "name": "",
          "type": "uint8"
        }
      ],
      "stateMutability": "view",
      "type": "function"
    },
    {
      "inputs": [],
      "name": "name",
      "outputs": [
        {
          "internalType": "string",
          "name": "",
          "type": "string"
        }
      ],
      "stateMutability": "view",
      "type": "function"
    },
    {
      "inputs": [],
      "name": "symbol",
      "outputs": [
        {
          "internalType": "string",
          "name": "",
          "type": "string"
        }
      ],
      "stateMutability": "view",
      "type": "function"
    },
    {
      "inputs": [],
      "name": "totalSupply",
      "outputs": [
        {
          "internalType": "uint256",
          "name": "",
          "type": "uint256"
        }
      ],
      "stateMutability": "view",
      "type": "function"
    },
    {
      "inputs": [
        {
          "internalType": "address",
          "name": "to",
          "type": "address"
        },
        {
          "internalType": "uint256",
          "name": "value",
          "type": "uint256"
        }
      ],
      "name": "transfer",
      "outputs": [
        {
          "internalType": "bool",
          "name": "",
          "type": "bool"
        }
      ],
      "stateMutability": "nonpayable",
      "type": "function"
    },
    {
      "inputs": [
        {
          "internalType": "address",
          "name": "from",
          "type": "address"
        },
        {
          "internalType": "address",
          "name": "to",
          "type": "address"
        },
        {
          "internalType": "uint256",
          "name": "value",
          "type": "uint256"
        }
      ],
      "name": "transferFrom",
      "outputs": [
        {
          "internalType": "bool",
          "name": "",
          "type": "bool"
        }
      ],
      "stateMutability": "nonpayable",
      "type": "function"
    },
    {
      "inputs": [
        {
          "internalType": "address",
          "name": "recipient",
          "type": "address"
        },
        {
          "internalType": "uint256",
          "name": "amount",
          "type": "uint256"
        }
      ],
      "name": "transferToUser",
      "outputs": [],
      "stateMutability": "nonpayable",
      "type": "function"
    }
  ],
  "bytecode": "0x60806040523480156200001157600080fd5b506040518060400160405280600681526020017f546f6b656e4100000000000000000000000000000000000000000000000000008152506040518060400160405280600381526020017f544b41000000000000000000000000000000000000000000000000000000000081525081600390816200008f91906200062a565b508060049081620000a191906200062a565b505050620000e430620000b9620000ea60201b60201c565b600a620000c79190620008a1565b633b9aca00620000d89190620008f2565b620000f360201b60201c565b62000a45565b60006012905090565b600073ffffffffffffffffffffffffffffffffffffffff168273ffffffffffffffffffffffffffffffffffffffff1603620001685760006040517fec442f050000000000000000000000000000000000000000000000000000000081526004016200015f919062000982565b60405180910390fd5b6200017c600083836200018060201b60201c565b5050565b600073ffffffffffffffffffffffffffffffffffffffff168373ffffffffffffffffffffffffffffffffffffffff1603620001d6578060026000828254620001c991906200099f565b92505081905550620002ac565b60008060008573ffffffffffffffffffffffffffffffffffffffff1673ffffffffffffffffffffffffffffffffffffffff1681526020019081526020016000205490508181101562000265578381836040517fe450d38c0000000000000000000000000000000000000000000000000000000081526004016200025c93929190620009eb565b60405180910390fd5b8181036000808673ffffffffffffffffffffffffffffffffffffffff1673ffffffffffffffffffffffffffffffffffffffff16815260200190815260200160002081905550505b600073ffffffffffffffffffffffffffffffffffffffff168273ffffffffffffffffffffffffffffffffffffffff1603620002f7578060026000828254039250508190555062000344565b806000808473ffffffffffffffffffffffffffffffffffffffff1673ffffffffffffffffffffffffffffffffffffffff168152602001908152602001600020600082825401925050819055505b8173ffffffffffffffffffffffffffffffffffffffff168373ffffffffffffffffffffffffffffffffffffffff167fddf252ad1be2c89b69c2b068fc378daa952ba7f163c4a11628f55a4df523b3ef83604051620003a3919062000a28565b60405180910390a3505050565b600081519050919050565b7f4e487b7100000000000000000000000000000000000000000000000000000000600052604160045260246000fd5b7f4e487b7100000000000000000000000000000000000000000000000000000000600052602260045260246000fd5b600060028204905060018216806200043257607f821691505b602082108103620004485762000447620003ea565b5b50919050565b60008190508160005260206000209050919050565b60006020601f8301049050919050565b600082821b905092915050565b600060088302620004b27fffffffffffffffffffffffffffffffffffffffffffffffffffffffffffffffff8262000473565b620004be868362000473565b95508019841693508086168417925050509392505050565b6000819050919050565b6000819050919050565b60006200050b62000505620004ff84620004d6565b620004e0565b620004d6565b9050919050565b6000819050919050565b6200052783620004ea565b6200053f620005368262000512565b84845462000480565b825550505050565b600090565b6200055662000547565b620005638184846200051c565b505050565b5b818110156200058b576200057f6000826200054c565b60018101905062000569565b5050565b601f821115620005da57620005a4816200044e565b620005af8462000463565b81016020851015620005bf578190505b620005d7620005ce8562000463565b83018262000568565b50505b505050565b600082821c905092915050565b6000620005ff60001984600802620005df565b1980831691505092915050565b60006200061a8383620005ec565b9150826002028217905092915050565b6200063582620003b0565b67ffffffffffffffff811115620006515762000650620003bb565b5b6200065d825462000419565b6200066a8282856200058f565b600060209050601f831160018114620006a257600084156200068d578287015190505b6200069985826200060c565b86555062000709565b601f198416620006b2866200044e565b60005b82811015620006dc57848901518255600182019150602085019450602081019050620006b5565b86831015620006fc5784890151620006f8601f891682620005ec565b8355505b6001600288020188555050505b505050505050565b7f4e487b7100000000000000000000000000000000000000000000000000000000600052601160045260246000fd5b60008160011c9050919050565b6000808291508390505b60018511156200079f5780860481111562000777576200077662000711565b5b6001851615620007875780820291505b8081029050620007978562000740565b945062000757565b94509492505050565b600082620007ba57600190506200088d565b81620007ca57600090506200088d565b8160018114620007e35760028114620007ee5762000824565b60019150506200088d565b60ff84111562000803576200080262000711565b5b8360020a9150848211156200081d576200081c62000711565b5b506200088d565b5060208310610133831016604e8410600b84101617156200085e5782820a90508381111562000858576200085762000711565b5b6200088d565b6200086d84848460016200074d565b9250905081840481111562000887576200088662000711565b5b81810290505b9392505050565b600060ff82169050919050565b6000620008ae82620004d6565b9150620008bb8362000894565b9250620008ea7fffffffffffffffffffffffffffffffffffffffffffffffffffffffffffffffff8484620007a8565b905092915050565b6000620008ff82620004d6565b91506200090c83620004d6565b92508282026200091c81620004d6565b9150828204841483151762000936576200093562000711565b5b5092915050565b600073ffffffffffffffffffffffffffffffffffffffff82169050919050565b60006200096a826200093d565b9050919050565b6200097c816200095d565b82525050565b600060208201905062000999600083018462000971565b92915050565b6000620009ac82620004d6565b9150620009b983620004d6565b9250828201905080821115620009d457620009d362000711565b5b92915050565b620009e581620004d6565b82525050565b600060608201905062000a02600083018662000971565b62000a116020830185620009da565b62000a206040830184620009da565b949350505050565b600060208201905062000a3f6000830184620009da565b92915050565b6111e58062000a556000396000f3fe608060405234801561001057600080fd5b50600436106100a95760003560e01c806346e04a2f1161007157806346e04a2f146101685780635f7807a41461018457806370a08231146101a057806395d89b41146101d0578063a9059cbb146101ee578063dd62ed3e1461021e576100a9565b806306fdde03146100ae578063095ea7b3146100cc57806318160ddd146100fc57806323b872dd1461011a578063313ce5671461014a575b600080fd5b6100b661024e565b6040516100c39190610c5c565b60405180910390f35b6100e660048036038101906100e19190610d17565b6102e0565b6040516100f39190610d72565b60405180910390f35b610104610303565b6040516101119190610d9c565b60405180910390f35b610134600480360381019061012f9190610db7565b61030d565b6040516101419190610d72565b60405180910390f35b61015261033c565b60405161015f9190610e26565b60405180910390f35b610182600480360381019061017d9190610e41565b610345565b005b61019e60048036038101906101999190610d17565b6103e1565b005b6101ba60048036038101906101b59190610e6e565b6104aa565b6040516101c79190610d9c565b60405180910390f35b6101d86104f2565b6040516101e59190610c5c565b60405180910390f35b61020860048036038101906102039190610d17565b610584565b6040516102159190610d72565b60405180910390f35b61023860048036038101906102339190610e9b565b6105a7565b6040516102459190610d9c565b60405180910390f35b60606003805461025d90610f0a565b80601f016020809104026020016040519081016040528092919081815260200182805461028990610f0a565b80156102d65780601f106102ab576101008083540402835291602001916102d6565b820191906000526020600020905b8154815290600101906020018083116102b957829003601f168201915b5050505050905090565b6000806102eb61062e565b90506102f8818585610636565b600191505092915050565b6000600254905090565b60008061031861062e565b9050610325858285610648565b6103308585856106dc565b60019150509392505050565b60006012905090565b60008111610388576040517f08c379a000000000000000000000000000000000000000000000000000000000815260040161037f90610f87565b60405180910390fd5b80610392306104aa565b10156103d3576040517f08c379a00000000000000000000000000000000000000000000000000000000081526004016103ca90610ff3565b60405180910390fd5b6103de3033836106dc565b50565b600073ffffffffffffffffffffffffffffffffffffffff168273ffffffffffffffffffffffffffffffffffffffff1603610450576040517f08c379a00000000000000000000000000000000000000000000000000000000081526004016104479061105f565b60405180910390fd5b8061045a306104aa565b101561049b576040517f08c379a0000000000000000000000000000000000000000000000000000000008152600401610492906110cb565b60405180910390fd5b6104a63083836106dc565b5050565b60008060008373ffffffffffffffffffffffffffffffffffffffff1673ffffffffffffffffffffffffffffffffffffffff168152602001908152602001600020549050919050565b60606004805461050190610f0a565b80601f016020809104026020016040519081016040528092919081815260200182805461052d90610f0a565b801561057a5780601f1061054f5761010080835404028352916020019161057a565b820191906000526020600020905b81548152906001019060200180831161055d57829003601f168201915b5050505050905090565b60008061058f61062e565b905061059c8185856106dc565b600191505092915050565b6000600160008473ffffffffffffffffffffffffffffffffffffffff1673ffffffffffffffffffffffffffffffffffffffff16815260200190815260200160002060008373ffffffffffffffffffffffffffffffffffffffff1673ffffffffffffffffffffffffffffffffffffffff16815260200190815260200160002054905092915050565b600033905090565b61064383838360016107d0565b505050565b600061065484846105a7565b90507fffffffffffffffffffffffffffffffffffffffffffffffffffffffffffffffff81146106d657818110156106c6578281836040517ffb8f41b20000000000000000000000000000000000000000000000000000000081526004016106bd939291906110fa565b60405180910390fd5b6106d5848484840360006107d0565b5b50505050565b600073ffffffffffffffffffffffffffffffffffffffff168373ffffffffffffffffffffffffffffffffffffffff160361074e5760006040517f96c6fd1e0000000000000000000000000000000000000000000000000000000081526004016107459190611131565b60405180910390fd5b600073ffffffffffffffffffffffffffffffffffffffff168273ffffffffffffffffffffffffffffffffffffffff16036107c05760006040517fec442f050000000000000000000000000000000000000000000000000000000081526004016107b79190611131565b60405180910390fd5b6107cb8383836109a7565b505050565b600073ffffffffffffffffffffffffffffffffffffffff168473ffffffffffffffffffffffffffffffffffffffff16036108425760006040517fe602df050000000000000000000000000000000000000000000000000000000081526004016108399190611131565b60405180910390fd5b600073ffffffffffffffffffffffffffffffffffffffff168373ffffffffffffffffffffffffffffffffffffffff16036108b45760006040517f94280d620000000000000000000000000000000000000000000000000000000081526004016108ab9190611131565b60405180910390fd5b81600160008673ffffffffffffffffffffffffffffffffffffffff1673ffffffffffffffffffffffffffffffffffffffff16815260200190815260200160002060008573ffffffffffffffffffffffffffffffffffffffff1673ffffffffffffffffffffffffffffffffffffffff1681526020019081526020016000208190555080156109a1578273ffffffffffffffffffffffffffffffffffffffff168473ffffffffffffffffffffffffffffffffffffffff167f8c5be1e5ebec7d5bd14f71427d1e84f3dd0314c0f7b2291e5b200ac8c7c3b925846040516109989190610d9c565b60405180910390a35b50505050565b600073ffffffffffffffffffffffffffffffffffffffff168373ffffffffffffffffffffffffffffffffffffffff16036109f95780600260008282546109ed919061117b565b92505081905550610acc565b60008060008573ffffffffffffffffffffffffffffffffffffffff1673ffffffffffffffffffffffffffffffffffffffff16815260200190815260200160002054905081811015610a85578381836040517fe450d38c000000000000000000000000000000000000000000000000000000008152600401610a7c939291906110fa565b60405180910390fd5b8181036000808673ffffffffffffffffffffffffffffffffffffffff1673ffffffffffffffffffffffffffffffffffffffff16815260200190815260200160002081905550505b600073ffffffffffffffffffffffffffffffffffffffff168273ffffffffffffffffffffffffffffffffffffffff1603610b155780600260008282540392505081905550610b62565b806000808473ffffffffffffffffffffffffffffffffffffffff1673ffffffffffffffffffffffffffffffffffffffff168152602001908152602001600020600082825401925050819055505b8173ffffffffffffffffffffffffffffffffffffffff168373ffffffffffffffffffffffffffffffffffffffff167fddf252ad1be2c89b69c2b068fc378daa952ba7f163c4a11628f55a4df523b3ef83604051610bbf9190610d9c565b60405180910390a3505050565b600081519050919050565b600082825260208201905092915050565b60005b83811015610c06578082015181840152602081019050610beb565b60008484015250505050565b6000601f19601f8301169050919050565b6000610c2e82610bcc565b610c388185610bd7565b9350610c48818560208601610be8565b610c5181610c12565b840191505092915050565b60006020820190508181036000830152610c768184610c23565b905092915050565b600080fd5b600073ffffffffffffffffffffffffffffffffffffffff82169050919050565b6000610cae82610c83565b9050919050565b610cbe81610ca3565b8114610cc957600080fd5b50565b600081359050610cdb81610cb5565b92915050565b6000819050919050565b610cf481610ce1565b8114610cff57600080fd5b50565b600081359050610d1181610ceb565b92915050565b60008060408385031215610d2e57610d2d610c7e565b5b6000610d3c85828601610ccc565b9250506020610d4d85828601610d02565b9150509250929050565b60008115159050919050565b610d6c81610d57565b82525050565b6000602082019050610d876000830184610d63565b92915050565b610d9681610ce1565b82525050565b6000602082019050610db16000830184610d8d565b92915050565b600080600060608486031215610dd057610dcf610c7e565b5b6000610dde86828701610ccc565b9350506020610def86828701610ccc565b9250506040610e0086828701610d02565b9150509250925092565b600060ff82169050919050565b610e2081610e0a565b82525050565b6000602082019050610e3b6000830184610e17565b92915050565b600060208284031215610e5757610e56610c7e565b5b6000610e6584828501610d02565b91505092915050565b600060208284031215610e8457610e83610c7e565b5b6000610e9284828501610ccc565b91505092915050565b60008060408385031215610eb257610eb1610c7e565b5b6000610ec085828601610ccc565b9250506020610ed185828601610ccc565b9150509250929050565b7f4e487b7100000000000000000000000000000000000000000000000000000000600052602260045260246000fd5b60006002820490506001821680610f2257607f821691505b602082108103610f3557610f34610edb565b5b50919050565b7f416d6f756e74206d7573742062652067726561746572207468616e2030000000600082015250565b6000610f71601d83610bd7565b9150610f7c82610f3b565b602082019050919050565b60006020820190508181036000830152610fa081610f64565b9050919050565b7f496e73756666696369656e7420737570706c7920696e20636f6e747261637400600082015250565b6000610fdd601f83610bd7565b9150610fe882610fa7565b602082019050919050565b6000602082019050818103600083015261100c81610fd0565b9050919050565b7f5472616e7366657220746f20746865207a65726f206164647265737300000000600082015250565b6000611049601c83610bd7565b915061105482611013565b602082019050919050565b600060208201905081810360008301526110788161103c565b9050919050565b7f496e73756666696369656e7420636f6e74726163742062616c616e6365000000600082015250565b60006110b5601d83610bd7565b91506110c08261107f565b602082019050919050565b600060208201905081810360008301526110e4816110a8565b9050919050565b6110f481610ca3565b82525050565b600060608201905061110f60008301866110eb565b61111c6020830185610d8d565b6111296040830184610d8d565b949350505050565b600060208201905061114660008301846110eb565b92915050565b7f4e487b7100000000000000000000000000000000000000000000000000000000600052601160045260246000fd5b600061118682610ce1565b915061119183610ce1565b92508282019050808211156111a9576111a861114c565b5b9291505056fea2646970667358221220d9f57f62d65d477a6ad151ca72f719f771fcb5ccc4a9b5f889bf9dbaf510302564736f6c63430008140033",
  "linkReferences": {},
  "deployedLinkReferences": {}
}