{
  "_format": "hh-sol-artifact-1",
  "contractName": "TokenB",
  "sourceName": "contracts/TokenB.sol",
  "abi": [
    {
      "inputs": [],
      "stateMutability": "nonpayable",
      "type": "constructor"
    },
    {
      "inputs": [
        {
          "internalType": "address",
          "name": "sender",
          "type": "address"
        },
        {
          "internalType": "uint256",
          "name": "tokenId",
          "type": "uint256"
        },
        {
          "internalType": "address",
          "name": "owner",
          "type": "address"
        }
      ],
      "name": "ERC721IncorrectOwner",
      "type": "error"
    },
    {
      "inputs": [
        {
          "internalType": "address",
          "name": "operator",
          "type": "address"
        },
        {
          "internalType": "uint256",
          "name": "tokenId",
          "type": "uint256"
        }
      ],
      "name": "ERC721InsufficientApproval",
      "type": "error"
    },
    {
      "inputs": [
        {
          "internalType": "address",
          "name": "approver",
          "type": "address"
        }
      ],
      "name": "ERC721InvalidApprover",
      "type": "error"
    },
    {
      "inputs": [
        {
          "internalType": "address",
          "name": "operator",
          "type": "address"
        }
      ],
      "name": "ERC721InvalidOperator",
      "type": "error"
    },
    {
      "inputs": [
        {
          "internalType": "address",
          "name": "owner",
          "type": "address"
        }
      ],
      "name": "ERC721InvalidOwner",
      "type": "error"
    },
    {
      "inputs": [
        {
          "internalType": "address",
          "name": "receiver",
          "type": "address"
        }
      ],
      "name": "ERC721InvalidReceiver",
      "type": "error"
    },
    {
      "inputs": [
        {
          "internalType": "address",
          "name": "sender",
          "type": "address"
        }
      ],
      "name": "ERC721InvalidSender",
      "type": "error"
    },
    {
      "inputs": [
        {
          "internalType": "uint256",
          "name": "tokenId",
          "type": "uint256"
        }
      ],
      "name": "ERC721NonexistentToken",
      "type": "error"
    },
    {
      "anonymous": false,
      "inputs": [
        {
          "indexed": true,
          "internalType": "address",
          "name": "owner",
          "type": "address"
        },
        {
          "indexed": true,
          "internalType": "address",
          "name": "approved",
          "type": "address"
        },
        {
          "indexed": true,
          "internalType": "uint256",
          "name": "tokenId",
          "type": "uint256"
        }
      ],
      "name": "Approval",
      "type": "event"
    },
    {
      "anonymous": false,
      "inputs": [
        {
          "indexed": true,
          "internalType": "address",
          "name": "owner",
          "type": "address"
        },
        {
          "indexed": true,
          "internalType": "address",
          "name": "operator",
          "type": "address"
        },
        {
          "indexed": false,
          "internalType": "bool",
          "name": "approved",
          "type": "bool"
        }
      ],
      "name": "ApprovalForAll",
      "type": "event"
    },
    {
      "anonymous": false,
      "inputs": [
        {
          "indexed": true,
          "internalType": "address",
          "name": "from",
          "type": "address"
        },
        {
          "indexed": true,
          "internalType": "address",
          "name": "to",
          "type": "address"
        },
        {
          "indexed": true,
          "internalType": "uint256",
          "name": "tokenId",
          "type": "uint256"
        }
      ],
      "name": "Transfer",
      "type": "event"
    },
    {
      "inputs": [
        {
          "internalType": "address",
          "name": "to",
          "type": "address"
        },
        {
          "internalType": "uint256",
          "name": "tokenId",
          "type": "uint256"
        }
      ],
      "name": "approve",
      "outputs": [],
      "stateMutability": "nonpayable",
      "type": "function"
    },
    {
      "inputs": [
        {
          "internalType": "address",
          "name": "owner",
          "type": "address"
        }
      ],
      "name": "balanceOf",
      "outputs": [
        {
          "internalType": "uint256",
          "name": "",
          "type": "uint256"
        }
      ],
      "stateMutability": "view",
      "type": "function"
    },
    {
      "inputs": [
        {
          "internalType": "uint256",
          "name": "tokenId",
          "type": "uint256"
        }
      ],
      "name": "getApproved",
      "outputs": [
        {
          "internalType": "address",
          "name": "",
          "type": "address"
        }
      ],
      "stateMutability": "view",
      "type": "function"
    },
    {
      "inputs": [
        {
          "internalType": "address",
          "name": "user",
          "type": "address"
        }
      ],
      "name": "getNFTCount",
      "outputs": [
        {
          "internalType": "uint256",
          "name": "",
          "type": "uint256"
        }
      ],
      "stateMutability": "view",
      "type": "function"
    },
    {
      "inputs": [
        {
          "internalType": "address",
          "name": "owner",
          "type": "address"
        },
        {
          "internalType": "address",
          "name": "operator",
          "type": "address"
        }
      ],
      "name": "isApprovedForAll",
      "outputs": [
        {
          "internalType": "bool",
          "name": "",
          "type": "bool"
        }
      ],
      "stateMutability": "view",
      "type": "function"
    },
    {
      "inputs": [
        {
          "internalType": "address",
          "name": "recipient",
          "type": "address"
        }
      ],
      "name": "mintNFT",
      "outputs": [],
      "stateMutability": "nonpayable",
      "type": "function"
    },
    {
      "inputs": [],
      "name": "name",
      "outputs": [
        {
          "internalType": "string",
          "name": "",
          "type": "string"
        }
      ],
      "stateMutability": "view",
      "type": "function"
    },
    {
      "inputs": [],
      "name": "nextTokenId",
      "outputs": [
        {
          "internalType": "uint256",
          "name": "",
          "type": "uint256"
        }
      ],
      "stateMutability": "view",
      "type": "function"
    },
    {
      "inputs": [
        {
          "internalType": "address",
          "name": "",
          "type": "address"
        }
      ],
      "name": "nftCounter",
      "outputs": [
        {
          "internalType": "uint256",
          "name": "",
          "type": "uint256"
        }
      ],
      "stateMutability": "view",
      "type": "function"
    },
    {
      "inputs": [
        {
          "internalType": "uint256",
          "name": "tokenId",
          "type": "uint256"
        }
      ],
      "name": "ownerOf",
      "outputs": [
        {
          "internalType": "address",
          "name": "",
          "type": "address"
        }
      ],
      "stateMutability": "view",
      "type": "function"
    },
    {
      "inputs": [
        {
          "internalType": "address",
          "name": "from",
          "type": "address"
        },
        {
          "internalType": "address",
          "name": "to",
          "type": "address"
        },
        {
          "internalType": "uint256",
          "name": "tokenId",
          "type": "uint256"
        }
      ],
      "name": "safeTransferFrom",
      "outputs": [],
      "stateMutability": "nonpayable",
      "type": "function"
    },
    {
      "inputs": [
        {
          "internalType": "address",
          "name": "from",
          "type": "address"
        },
        {
          "internalType": "address",
          "name": "to",
          "type": "address"
        },
        {
          "internalType": "uint256",
          "name": "tokenId",
          "type": "uint256"
        },
        {
          "internalType": "bytes",
          "name": "data",
          "type": "bytes"
        }
      ],
      "name": "safeTransferFrom",
      "outputs": [],
      "stateMutability": "nonpayable",
      "type": "function"
    },
    {
      "inputs": [
        {
          "internalType": "address",
          "name": "operator",
          "type": "address"
        },
        {
          "internalType": "bool",
          "name": "approved",
          "type": "bool"
        }
      ],
      "name": "setApprovalForAll",
      "outputs": [],
      "stateMutability": "nonpayable",
      "type": "function"
    },
    {
      "inputs": [
        {
          "internalType": "bytes4",
          "name": "interfaceId",
          "type": "bytes4"
        }
      ],
      "name": "supportsInterface",
      "outputs": [
        {
          "internalType": "bool",
          "name": "",
          "type": "bool"
        }
      ],
      "stateMutability": "view",
      "type": "function"
    },
    {
      "inputs": [],
      "name": "symbol",
      "outputs": [
        {
          "internalType": "string",
          "name": "",
          "type": "string"
        }
      ],
      "stateMutability": "view",
      "type": "function"
    },
    {
      "inputs": [
        {
          "internalType": "uint256",
          "name": "tokenId",
          "type": "uint256"
        }
      ],
      "name": "tokenURI",
      "outputs": [
        {
          "internalType": "string",
          "name": "",
          "type": "string"
        }
      ],
      "stateMutability": "view",
      "type": "function"
    },
    {
      "inputs": [
        {
          "internalType": "address",
          "name": "from",
          "type": "address"
        },
        {
          "internalType": "address",
          "name": "to",
          "type": "address"
        },
        {
          "internalType": "uint256",
          "name": "tokenId",
          "type": "uint256"
        }
      ],
      "name": "transferFrom",
      "outputs": [],
      "stateMutability": "nonpayable",
      "type": "function"
    }
  ],
  "bytecode": "0x60806040523480156200001157600080fd5b506040518060400160405280600681526020017f546f6b656e4200000000000000000000000000000000000000000000000000008152506040518060400160405280600381526020017f544b42000000000000000000000000000000000000000000000000000000000081525081600090816200008f919062000324565b508060019081620000a1919062000324565b5050506200040b565b600081519050919050565b7f4e487b7100000000000000000000000000000000000000000000000000000000600052604160045260246000fd5b7f4e487b7100000000000000000000000000000000000000000000000000000000600052602260045260246000fd5b600060028204905060018216806200012c57607f821691505b602082108103620001425762000141620000e4565b5b50919050565b60008190508160005260206000209050919050565b60006020601f8301049050919050565b600082821b905092915050565b600060088302620001ac7fffffffffffffffffffffffffffffffffffffffffffffffffffffffffffffffff826200016d565b620001b886836200016d565b95508019841693508086168417925050509392505050565b6000819050919050565b6000819050919050565b600062000205620001ff620001f984620001d0565b620001da565b620001d0565b9050919050565b6000819050919050565b6200022183620001e4565b6200023962000230826200020c565b8484546200017a565b825550505050565b600090565b6200025062000241565b6200025d81848462000216565b505050565b5b8181101562000285576200027960008262000246565b60018101905062000263565b5050565b601f821115620002d4576200029e8162000148565b620002a9846200015d565b81016020851015620002b9578190505b620002d1620002c8856200015d565b83018262000262565b50505b505050565b600082821c905092915050565b6000620002f960001984600802620002d9565b1980831691505092915050565b6000620003148383620002e6565b9150826002028217905092915050565b6200032f82620000aa565b67ffffffffffffffff8111156200034b576200034a620000b5565b5b62000357825462000113565b6200036482828562000289565b600060209050601f8311600181146200039c576000841562000387578287015190505b62000393858262000306565b86555062000403565b601f198416620003ac8662000148565b60005b82811015620003d657848901518255600182019150602085019450602081019050620003af565b86831015620003f65784890151620003f2601f891682620002e6565b8355505b6001600288020188555050505b505050505050565b6120b8806200041b6000396000f3fe608060405234801561001057600080fd5b506004361061010b5760003560e01c80636352211e116100a2578063a22cb46511610071578063a22cb465146102ca578063b88d4fde146102e6578063c87b56dd14610302578063e985e9c514610332578063f41d3f69146103625761010b565b80636352211e1461022e57806370a082311461025e57806375794a3c1461028e57806395d89b41146102ac5761010b565b80630980ea8c116100de5780630980ea8c146101aa57806323b872dd146101da57806342842e0e146101f657806354ba0f27146102125761010b565b806301ffc9a71461011057806306fdde0314610140578063081812fc1461015e578063095ea7b31461018e575b600080fd5b61012a600480360381019061012591906117e5565b610392565b604051610137919061182d565b60405180910390f35b610148610474565b60405161015591906118d8565b60405180910390f35b61017860048036038101906101739190611930565b610506565b604051610185919061199e565b60405180910390f35b6101a860048036038101906101a391906119e5565b610522565b005b6101c460048036038101906101bf9190611a25565b610538565b6040516101d19190611a61565b60405180910390f35b6101f460048036038101906101ef9190611a7c565b610550565b005b610210600480360381019061020b9190611a7c565b610652565b005b61022c60048036038101906102279190611a25565b610672565b005b61024860048036038101906102439190611930565b610721565b604051610255919061199e565b60405180910390f35b61027860048036038101906102739190611a25565b610733565b6040516102859190611a61565b60405180910390f35b6102966107ed565b6040516102a39190611a61565b60405180910390f35b6102b46107f3565b6040516102c191906118d8565b60405180910390f35b6102e460048036038101906102df9190611afb565b610885565b005b61030060048036038101906102fb9190611c70565b61089b565b005b61031c60048036038101906103179190611930565b6108b8565b60405161032991906118d8565b60405180910390f35b61034c60048036038101906103479190611cf3565b610921565b604051610359919061182d565b60405180910390f35b61037c60048036038101906103779190611a25565b6109b5565b6040516103899190611a61565b60405180910390f35b60007f80ac58cd000000000000000000000000000000000000000000000000000000007bffffffffffffffffffffffffffffffffffffffffffffffffffffffff1916827bffffffffffffffffffffffffffffffffffffffffffffffffffffffff1916148061045d57507f5b5e139f000000000000000000000000000000000000000000000000000000007bffffffffffffffffffffffffffffffffffffffffffffffffffffffff1916827bffffffffffffffffffffffffffffffffffffffffffffffffffffffff1916145b8061046d575061046c826109fe565b5b9050919050565b60606000805461048390611d62565b80601f01602080910402602001604051908101604052809291908181526020018280546104af90611d62565b80156104fc5780601f106104d1576101008083540402835291602001916104fc565b820191906000526020600020905b8154815290600101906020018083116104df57829003601f168201915b5050505050905090565b600061051182610a68565b5061051b82610af0565b9050919050565b610534828261052f610b2d565b610b35565b5050565b60076020528060005260406000206000915090505481565b600073ffffffffffffffffffffffffffffffffffffffff168273ffffffffffffffffffffffffffffffffffffffff16036105c25760006040517f64a0ae920000000000000000000000000000000000000000000000000000000081526004016105b9919061199e565b60405180910390fd5b60006105d683836105d1610b2d565b610b47565b90508373ffffffffffffffffffffffffffffffffffffffff168173ffffffffffffffffffffffffffffffffffffffff161461064c578382826040517f64283d7b00000000000000000000000000000000000000000000000000000000815260040161064393929190611d93565b60405180910390fd5b50505050565b61066d8383836040518060200160405280600081525061089b565b505050565b6000428260065460405160200161068b93929190611e33565b6040516020818303038152906040528051906020012060001c90506106b08282610d61565b600760008373ffffffffffffffffffffffffffffffffffffffff1673ffffffffffffffffffffffffffffffffffffffff168152602001908152602001600020600081548092919061070090611e9f565b91905055506006600081548092919061071890611e9f565b91905055505050565b600061072c82610a68565b9050919050565b60008073ffffffffffffffffffffffffffffffffffffffff168273ffffffffffffffffffffffffffffffffffffffff16036107a65760006040517f89c62b6400000000000000000000000000000000000000000000000000000000815260040161079d919061199e565b60405180910390fd5b600360008373ffffffffffffffffffffffffffffffffffffffff1673ffffffffffffffffffffffffffffffffffffffff168152602001908152602001600020549050919050565b60065481565b60606001805461080290611d62565b80601f016020809104026020016040519081016040528092919081815260200182805461082e90611d62565b801561087b5780601f106108505761010080835404028352916020019161087b565b820191906000526020600020905b81548152906001019060200180831161085e57829003601f168201915b5050505050905090565b610897610890610b2d565b8383610d7f565b5050565b6108a6848484610550565b6108b284848484610eee565b50505050565b60606108c382610a68565b5060006108ce6110a5565b905060008151116108ee5760405180602001604052806000815250610919565b806108f8846110bc565b604051602001610909929190611f23565b6040516020818303038152906040525b915050919050565b6000600560008473ffffffffffffffffffffffffffffffffffffffff1673ffffffffffffffffffffffffffffffffffffffff16815260200190815260200160002060008373ffffffffffffffffffffffffffffffffffffffff1673ffffffffffffffffffffffffffffffffffffffff16815260200190815260200160002060009054906101000a900460ff16905092915050565b6000600760008373ffffffffffffffffffffffffffffffffffffffff1673ffffffffffffffffffffffffffffffffffffffff168152602001908152602001600020549050919050565b60007f01ffc9a7000000000000000000000000000000000000000000000000000000007bffffffffffffffffffffffffffffffffffffffffffffffffffffffff1916827bffffffffffffffffffffffffffffffffffffffffffffffffffffffff1916149050919050565b600080610a748361118a565b9050600073ffffffffffffffffffffffffffffffffffffffff168173ffffffffffffffffffffffffffffffffffffffff1603610ae757826040517f7e273289000000000000000000000000000000000000000000000000000000008152600401610ade9190611a61565b60405180910390fd5b80915050919050565b60006004600083815260200190815260200160002060009054906101000a900473ffffffffffffffffffffffffffffffffffffffff169050919050565b600033905090565b610b4283838360016111c7565b505050565b600080610b538461118a565b9050600073ffffffffffffffffffffffffffffffffffffffff168373ffffffffffffffffffffffffffffffffffffffff1614610b9557610b9481848661138c565b5b600073ffffffffffffffffffffffffffffffffffffffff168173ffffffffffffffffffffffffffffffffffffffff1614610c2657610bd76000856000806111c7565b6001600360008373ffffffffffffffffffffffffffffffffffffffff1673ffffffffffffffffffffffffffffffffffffffff168152602001908152602001600020600082825403925050819055505b600073ffffffffffffffffffffffffffffffffffffffff168573ffffffffffffffffffffffffffffffffffffffff1614610ca9576001600360008773ffffffffffffffffffffffffffffffffffffffff1673ffffffffffffffffffffffffffffffffffffffff168152602001908152602001600020600082825401925050819055505b846002600086815260200190815260200160002060006101000a81548173ffffffffffffffffffffffffffffffffffffffff021916908373ffffffffffffffffffffffffffffffffffffffff160217905550838573ffffffffffffffffffffffffffffffffffffffff168273ffffffffffffffffffffffffffffffffffffffff167fddf252ad1be2c89b69c2b068fc378daa952ba7f163c4a11628f55a4df523b3ef60405160405180910390a4809150509392505050565b610d7b828260405180602001604052806000815250611450565b5050565b600073ffffffffffffffffffffffffffffffffffffffff168273ffffffffffffffffffffffffffffffffffffffff1603610df057816040517f5b08ba18000000000000000000000000000000000000000000000000000000008152600401610de7919061199e565b60405180910390fd5b80600560008573ffffffffffffffffffffffffffffffffffffffff1673ffffffffffffffffffffffffffffffffffffffff16815260200190815260200160002060008473ffffffffffffffffffffffffffffffffffffffff1673ffffffffffffffffffffffffffffffffffffffff16815260200190815260200160002060006101000a81548160ff0219169083151502179055508173ffffffffffffffffffffffffffffffffffffffff168373ffffffffffffffffffffffffffffffffffffffff167f17307eab39ab6107e8899845ad3d59bd9653f200f220920489ca2b5937696c3183604051610ee1919061182d565b60405180910390a3505050565b60008373ffffffffffffffffffffffffffffffffffffffff163b111561109f578273ffffffffffffffffffffffffffffffffffffffff1663150b7a02610f32610b2d565b8685856040518563ffffffff1660e01b8152600401610f549493929190611f9c565b6020604051808303816000875af1925050508015610f9057506040513d601f19601f82011682018060405250810190610f8d9190611ffd565b60015b611014573d8060008114610fc0576040519150601f19603f3d011682016040523d82523d6000602084013e610fc5565b606091505b50600081510361100c57836040517f64a0ae92000000000000000000000000000000000000000000000000000000008152600401611003919061199e565b60405180910390fd5b805181602001fd5b63150b7a0260e01b7bffffffffffffffffffffffffffffffffffffffffffffffffffffffff1916817bffffffffffffffffffffffffffffffffffffffffffffffffffffffff19161461109d57836040517f64a0ae92000000000000000000000000000000000000000000000000000000008152600401611094919061199e565b60405180910390fd5b505b50505050565b606060405180602001604052806000815250905090565b6060600060016110cb8461146c565b01905060008167ffffffffffffffff8111156110ea576110e9611b45565b5b6040519080825280601f01601f19166020018201604052801561111c5781602001600182028036833780820191505090505b509050600082602001820190505b60011561117f578080600190039150507f3031323334353637383961626364656600000000000000000000000000000000600a86061a8153600a85816111735761117261202a565b5b0494506000850361112a575b819350505050919050565b60006002600083815260200190815260200160002060009054906101000a900473ffffffffffffffffffffffffffffffffffffffff169050919050565b80806112005750600073ffffffffffffffffffffffffffffffffffffffff168273ffffffffffffffffffffffffffffffffffffffff1614155b1561133457600061121084610a68565b9050600073ffffffffffffffffffffffffffffffffffffffff168373ffffffffffffffffffffffffffffffffffffffff161415801561127b57508273ffffffffffffffffffffffffffffffffffffffff168173ffffffffffffffffffffffffffffffffffffffff1614155b801561128e575061128c8184610921565b155b156112d057826040517fa9fbf51f0000000000000000000000000000000000000000000000000000000081526004016112c7919061199e565b60405180910390fd5b811561133257838573ffffffffffffffffffffffffffffffffffffffff168273ffffffffffffffffffffffffffffffffffffffff167f8c5be1e5ebec7d5bd14f71427d1e84f3dd0314c0f7b2291e5b200ac8c7c3b92560405160405180910390a45b505b836004600085815260200190815260200160002060006101000a81548173ffffffffffffffffffffffffffffffffffffffff021916908373ffffffffffffffffffffffffffffffffffffffff16021790555050505050565b6113978383836115bf565b61144b57600073ffffffffffffffffffffffffffffffffffffffff168373ffffffffffffffffffffffffffffffffffffffff160361140c57806040517f7e2732890000000000000000000000000000000000000000000000000000000081526004016114039190611a61565b60405180910390fd5b81816040517f177e802f000000000000000000000000000000000000000000000000000000008152600401611442929190612059565b60405180910390fd5b505050565b61145a8383611680565b6114676000848484610eee565b505050565b600080600090507a184f03e93ff9f4daa797ed6e38ed64bf6a1f01000000000000000083106114ca577a184f03e93ff9f4daa797ed6e38ed64bf6a1f01000000000000000083816114c0576114bf61202a565b5b0492506040810190505b6d04ee2d6d415b85acef81000000008310611507576d04ee2d6d415b85acef810000000083816114fd576114fc61202a565b5b0492506020810190505b662386f26fc10000831061153657662386f26fc10000838161152c5761152b61202a565b5b0492506010810190505b6305f5e100831061155f576305f5e10083816115555761155461202a565b5b0492506008810190505b612710831061158457612710838161157a5761157961202a565b5b0492506004810190505b606483106115a7576064838161159d5761159c61202a565b5b0492506002810190505b600a83106115b6576001810190505b80915050919050565b60008073ffffffffffffffffffffffffffffffffffffffff168373ffffffffffffffffffffffffffffffffffffffff161415801561167757508273ffffffffffffffffffffffffffffffffffffffff168473ffffffffffffffffffffffffffffffffffffffff16148061163857506116378484610921565b5b8061167657508273ffffffffffffffffffffffffffffffffffffffff1661165e83610af0565b73ffffffffffffffffffffffffffffffffffffffff16145b5b90509392505050565b600073ffffffffffffffffffffffffffffffffffffffff168273ffffffffffffffffffffffffffffffffffffffff16036116f25760006040517f64a0ae920000000000000000000000000000000000000000000000000000000081526004016116e9919061199e565b60405180910390fd5b600061170083836000610b47565b9050600073ffffffffffffffffffffffffffffffffffffffff168173ffffffffffffffffffffffffffffffffffffffff16146117745760006040517f73c6ac6e00000000000000000000000000000000000000000000000000000000815260040161176b919061199e565b60405180910390fd5b505050565b6000604051905090565b600080fd5b600080fd5b60007fffffffff0000000000000000000000000000000000000000000000000000000082169050919050565b6117c28161178d565b81146117cd57600080fd5b50565b6000813590506117df816117b9565b92915050565b6000602082840312156117fb576117fa611783565b5b6000611809848285016117d0565b91505092915050565b60008115159050919050565b61182781611812565b82525050565b6000602082019050611842600083018461181e565b92915050565b600081519050919050565b600082825260208201905092915050565b60005b83811015611882578082015181840152602081019050611867565b60008484015250505050565b6000601f19601f8301169050919050565b60006118aa82611848565b6118b48185611853565b93506118c4818560208601611864565b6118cd8161188e565b840191505092915050565b600060208201905081810360008301526118f2818461189f565b905092915050565b6000819050919050565b61190d816118fa565b811461191857600080fd5b50565b60008135905061192a81611904565b92915050565b60006020828403121561194657611945611783565b5b60006119548482850161191b565b91505092915050565b600073ffffffffffffffffffffffffffffffffffffffff82169050919050565b60006119888261195d565b9050919050565b6119988161197d565b82525050565b60006020820190506119b3600083018461198f565b92915050565b6119c28161197d565b81146119cd57600080fd5b50565b6000813590506119df816119b9565b92915050565b600080604083850312156119fc576119fb611783565b5b6000611a0a858286016119d0565b9250506020611a1b8582860161191b565b9150509250929050565b600060208284031215611a3b57611a3a611783565b5b6000611a49848285016119d0565b91505092915050565b611a5b816118fa565b82525050565b6000602082019050611a766000830184611a52565b92915050565b600080600060608486031215611a9557611a94611783565b5b6000611aa3868287016119d0565b9350506020611ab4868287016119d0565b9250506040611ac58682870161191b565b9150509250925092565b611ad881611812565b8114611ae357600080fd5b50565b600081359050611af581611acf565b92915050565b60008060408385031215611b1257611b11611783565b5b6000611b20858286016119d0565b9250506020611b3185828601611ae6565b9150509250929050565b600080fd5b600080fd5b7f4e487b7100000000000000000000000000000000000000000000000000000000600052604160045260246000fd5b611b7d8261188e565b810181811067ffffffffffffffff82111715611b9c57611b9b611b45565b5b80604052505050565b6000611baf611779565b9050611bbb8282611b74565b919050565b600067ffffffffffffffff821115611bdb57611bda611b45565b5b611be48261188e565b9050602081019050919050565b82818337600083830152505050565b6000611c13611c0e84611bc0565b611ba5565b905082815260208101848484011115611c2f57611c2e611b40565b5b611c3a848285611bf1565b509392505050565b600082601f830112611c5757611c56611b3b565b5b8135611c67848260208601611c00565b91505092915050565b60008060008060808587031215611c8a57611c89611783565b5b6000611c98878288016119d0565b9450506020611ca9878288016119d0565b9350506040611cba8782880161191b565b925050606085013567ffffffffffffffff811115611cdb57611cda611788565b5b611ce787828801611c42565b91505092959194509250565b60008060408385031215611d0a57611d09611783565b5b6000611d18858286016119d0565b9250506020611d29858286016119d0565b9150509250929050565b7f4e487b7100000000000000000000000000000000000000000000000000000000600052602260045260246000fd5b60006002820490506001821680611d7a57607f821691505b602082108103611d8d57611d8c611d33565b5b50919050565b6000606082019050611da8600083018661198f565b611db56020830185611a52565b611dc2604083018461198f565b949350505050565b6000819050919050565b611de5611de0826118fa565b611dca565b82525050565b60008160601b9050919050565b6000611e0382611deb565b9050919050565b6000611e1582611df8565b9050919050565b611e2d611e288261197d565b611e0a565b82525050565b6000611e3f8286611dd4565b602082019150611e4f8285611e1c565b601482019150611e5f8284611dd4565b602082019150819050949350505050565b7f4e487b7100000000000000000000000000000000000000000000000000000000600052601160045260246000fd5b6000611eaa826118fa565b91507fffffffffffffffffffffffffffffffffffffffffffffffffffffffffffffffff8203611edc57611edb611e70565b5b600182019050919050565b600081905092915050565b6000611efd82611848565b611f078185611ee7565b9350611f17818560208601611864565b80840191505092915050565b6000611f2f8285611ef2565b9150611f3b8284611ef2565b91508190509392505050565b600081519050919050565b600082825260208201905092915050565b6000611f6e82611f47565b611f788185611f52565b9350611f88818560208601611864565b611f918161188e565b840191505092915050565b6000608082019050611fb1600083018761198f565b611fbe602083018661198f565b611fcb6040830185611a52565b8181036060830152611fdd8184611f63565b905095945050505050565b600081519050611ff7816117b9565b92915050565b60006020828403121561201357612012611783565b5b600061202184828501611fe8565b91505092915050565b7f4e487b7100000000000000000000000000000000000000000000000000000000600052601260045260246000fd5b600060408201905061206e600083018561198f565b61207b6020830184611a52565b939250505056fea26469706673582212202631f39353fe8091a2b9839fac99d7be3a284979fdeb2118929dbdcba804fd8c64736f6c63430008140033",
  "linkReferences": {},
  "deployedLinkReferences": {}
}